:020000040800F2
:1000000020160020010100089F250008571800084D
:100010009D250008F70100084528000800000000A1
:10002000000000000000000000000000D5270008CC
:10003000F901000800000000A1250008D7270008EA
:100040001B0100081B0100081B010008F526000821
:100050001B0100081B0100081B0100081B01000810
:100060001B0100081B0100081B0100081B01000800
:100070001B0100081B0100081B0100081B010008F0
:100080001B0100081B0100081B0100081B010008E0
:100090001B0100081B0100081B0100081B010008D0
:1000A0001B0100081B0100081B0100081B010008C0
:1000B0001B0100081B0100081B010008591800085B
:1000C0001B0100081B0100081B0100081B010008A0
:1000D0001B0100081B0100081B0100081B01000890
:1000E000FB010008A52500081B010008DFF80CD063
:1000F00000F040F800480047252A0008201600209C
:100100000648804706480047FEE7FEE7FEE7FEE7B1
:10011000FEE7FEE7FEE7FEE7FEE7FEE7432800080E
:10012000ED000008D2B201E000F8012B491EFBD21D
:1001300070470022F6E710B513460A4604461946F2
:10014000FFF7F0FF204610BD30B50B4601460020FA
:100150002022012409E021FA02F59D4205D303FA89
:1001600002F5491B04FA02F52844151EA2F101020A
:10017000F1DC30BD064C074D06E0E06840F00103BD
:1001800094E8070098471034AC42F6D3FFF7B2FF6B
:10019000702E0008902E000870B58D1810F8014BD5
:1001A00014F0030201D110F8012B231106D110F82D
:1001B000013B03E010F8016B01F8016B521EF9D10D
:1001C000ABB110F8012B04F00C048A1A0C2C03D0EC
:1001D000A2EB84129B1C08E010F8014BA2EB042256
:1001E000F8E712F8014B01F8014B5B1EF9D5A94263
:1001F000D4D3002070BDFEE7704710B54FF4805097
:1002000000F0E0F8BDE810404FF4005000F0DAB81C
:100210007047000010B590F821100024022903D087
:100220000421816301243DE001680A6822F00E0286
:100230000A6001680A6822F001020A601A4A01682D
:10024000914201D1012121E0174A1432914201D19A
:1002500010211BE0144A2832914201D1891515E082
:10026000114A3C32914201D189140FE00E4A5032BA
:10027000914202D14FF4803108E00B4A643291423E
:1002800002D14FF4801101E04FF08071064A083A24
:100290005160012180F82110002180F82010416B6D
:1002A00001B18847204610BD0800024090F82100A7
:1002B0007047000070B5044600F08AF90546601CDE
:1002C00002D004480078044400F082F9401BA042A8
:1002D000FAD370BD7C0D002038B54FF48051002555
:1002E000354A4B00354C884228D11946104600F05B
:1002F00065F901280BD0A07801280DD004280BD077
:10030000022811D005280FD0032815D04EE0257102
:100310006420FFF7CFFF49E06079172802D2401C24
:10032000607143E0657141E02078372802D2401DBA
:1003300020703BE0257039E0042026E098423AD155
:10034000104600F03BF90128E1D0A078012160B10E
:1003500001280CD002280CD003280CD0042811D07E
:10036000052811D0062812D020E0A1701EE002203E
:100370000BE0032009E06079A07120786070A5701F
:10038000217113E0052000E00620A0700EE000952A
:1003900060798DF8000020788DF801008DF802500A
:1003A00000226946064801F0CFF9A570BDE8384043
:1003B0003220FFF77FBF38BD000C0140700D0020D8
:1003C00008120020044910B50A68024202D00860F1
:1003D000FFF782FF10BD0000140401402DE9F84F23
:1003E000DFF8B891002409F1040A0AF1040B23464E
:1003F0000F270BF1040EC9E00125A5402A40AA42AF
:100400007DD1674ED1F804C0ACEB0608B44532D0BC
:1004100014DCBCF1030F3AD009DCBCF1000F2AD088
:10042000BCF1010F1CD0BCF1020F31D11DE0BCF1B9
:10043000110F17D0BCF1120F2AD119E0B8F5881F9F
:1004400019D006DCB8F5803F15D0B8F5801F1FD154
:1004500011E0B8F5001F0ED0B8F5041F18D10AE05E
:10046000CB6815E0CB681B1D12E0CB6808330FE0AA
:10047000CB680C330CE08B682BB1012B4FF00803D9
:1004800003D0456104E0042302E0056100E000239D
:10049000FF2A01D8064601E000F104064FEA840570
:1004A00001D9A5F12005D6F8008007FA05FC28EA55
:1004B0000C0803FA05F548EA0508C6F800804D68FF
:1004C000ED0062D5374DAE6946F00106AE61AD690B
:1004D00024F0030605F001050095334D06EB050CED
:1004E000DCF80850A607360F07FA06F825EA0805D3
:1004F000DFF8B880404503D14FF0000817E044E032
:10050000DFF8AC80404502D14FF001080FE0DFF882
:10051000A480404502D14FF0020808E0DFF898803F
:10052000404502D14FF0030801E04FF0040808FAFB
:1005300006F848EA0508CCF808804D68D9F800604C
:10054000ED034D4601D5164300E096432E604D68FD
:10055000DAF80060AD03554601D5164300E0964336
:100560002E604D68DBF80060ED025D4601D5164354
:1005700000E096432E604D68DEF80060AD027546DF
:1005800001D5164300E096432E60641C0D682A4690
:10059000E5407FF431AFBDE8F88F00000004014072
:1005A000000011100010024000000140000801404E
:1005B000000C014000100140001401408068084018
:1005C00000D0012070470AB1016170470904FBE7C0
:1005D00001488068704700007C0D0020704770471C
:1005E0002DE9F047026800215368C66A90F83E4042
:1005F00090F83D50102C12D0402C10D0046C002CE0
:100600007DD05469E443A6077AD4DE43B60577D497
:10061000036C03B19169BDE8F04701F055BD9769DE
:1006200051694FF42A0CC9435FEAC1784FF02A4957
:1006300004D066452AD04E4528D010E0DE43B605EA
:100640000DD4C16A614501D1012103E0C16A494568
:1006500001D10821C162BDE8F04701F04BBC0E0793
:1006600016D4DE43B60513D4416CC9B21161416B97
:1006700009B1896A29B9816B002907D0896A0029E3
:1006800004D00068416841F400614160BDE8F08732
:100690008E0706D4DE43B60503D4BDE8F04701F06B
:1006A0007DBBFE43526876074FEA02521DD4002AF2
:1006B000ECDB0A0608D4DA43520505D4490705D510
:1006C000BDE8F04701F00EBB4907DFD4D9438905E7
:1006D000DCD4212D05D0402CD8D1BDE8F04701F065
:1006E0004FBCBDE8F04701F0BBBA002ACEDB4A069A
:1006F0000BD4DA43520508D4490708D501E00DE0D0
:100700000EE0BDE8F04701F037BA4907BED4D9433F
:100710008905BBD4BDE8F04701F0C5B9916970E720
:10072000E10606D4D943890503D4BDE8F04701F0BA
:10073000EFBC2821212D27D0292D25D0650655D4A1
:10074000DD436D0552D4640752D590F83D30448D99
:10075000002C9BD01269446A2270426A521C426289
:10076000428D521E4285428D002A8FD12A2B8DD177
:100770000268536823F4806353602222026380F886
:100780003D1000F0DFF981E7250623D4DD436D0538
:1007900020D4640720D590F83D30448D002CF2D051
:1007A000446A24781461426A521C4262428D521E8D
:1007B0004285428D002AE6D1292BE4D10268536894
:1007C00023F4806353602122026380F83D1000F01F
:1007D000BAF95BE76107D6D4D9438905D3D4418DF3
:1007E0000029D0D0416A097811610AE06107CAD4B2
:1007F000D9438905C7D4418D0029C4D01169426A03
:100800001170416A491C4162418D491E41853DE795
:100810007047000070B5040025D094F83D00002515
:1008200020B984F83C50204600F056F9242084F882
:100830003D002068016821F0010101602068016825
:1008400041F4004101602068016821F40041016029
:1008500000F088FB4D4A6168914201D84C4900E0A4
:100860004C49884201D2012070BD4B492368B0FB3E
:10087000F1F15E6826F03F060E435E6063689342C6
:1008800006D94FF4967359434FF47A73B1FBF3F1E1
:100890002368491C1E6A26F03F06314319626168CD
:1008A000914210D84900401EB0FBF1F2521CC2F335
:1008B0000B02042A01D2042022E0B0FBF1F0401C1C
:1008C000C0F30B001CE0A268F2B301EBC10303EB21
:1008D0000116431EB3FBF6F35B1C43F480431B0578
:1008E00049D092B301EBC10202EB0111401EB0FBF3
:1008F000F1F0401CC0F30B0040F4804040F4004095
:100900002168CA694CF6FF739A431043C861D4E961
:10091000071001432068026822F0C0021143016001
:10092000D4E9030101432068826848F2FF339A4307
:1009300011438160D4E9050108432168CA6822F0A7
:10094000FF021043C86001E00EE016E02068016875
:1009500041F0010101602564202084F83D002563F9
:1009600084F83E50002070BD01EB4106431EB3FBEE
:10097000F6F35B1CB3E70120C2E701EB4101401E27
:10098000B0FBF1F0401CC0F30B00B7E7A0860100FC
:1009900080841E0000093D0040420F0070477047F0
:1009A00070477047704700002DE9FF4F83B09A46AB
:1009B000DDE9119793460446DDF84080FFF708FE15
:1009C000054694F83D0020287FD119230122404993
:1009D0002046009501F070FC002876D194F83C0088
:1009E000012872D0012084F83C0020680168C90702
:1009F00003D1016841F0010101602068016821F420
:100A000000610160212084F83D00402084F83E0010
:100A100000262664C4F82480A4F82A90608D2085DE
:100A20002C48E062CDE9007553465A4620460499A9
:100A300001F0F6FA70B930E02A463946204601F056
:100A4000BAFC58B1206C042804D12068016841F434
:100A500000710160012007B0BDE8F08F606A216875
:100A600000780861606A401C6062218D491E89B26D
:100A70002185628D521E628522685369DB435B07C4
:100A80000BD469B100781061606A401C6062208DEF
:100A9000401E2085608D401E6085208D0028CBD1B2
:100AA0002A463946204601F0E1FB0028CAD154F815
:100AB0003D0B016841F400710160202004F81E091B
:100AC000E67766770020C6E7FFE70220C3E700006D
:100AD000020010000000FFFF10B586B00021009159
:100AE00001910291039100681349884222D1134C6D
:100AF000A06940F00800A061A069694600F0080004
:100B00000490C020009012200190032003900C4814
:100B1000FFF764FCE06940F40010E061E069002246
:100B200000F40010049011461F2000F073F81F20FD
:100B300000F062F806B010BD005400400010024002
:100B4000000C0140704770470248816802781144E8
:100B5000816070477C0D0020074810B5016841F0A6
:100B600010010160032000F075F8002000F006F885
:100B700000F024F8002010BD0020024070B50D4D9B
:100B800004464FF47A712878B1FBF0F00A490968FD
:100B9000B1FBF0F000F04BFE48B9102C07D2002258
:100BA0002146501E00F036F800206C6070BD012018
:100BB00070BD00007C0D0020880D00200C4808B599
:100BC000816941F001018161816901F001010091B8
:100BD000C16941F08051C161C06900F0805000904E
:100BE0000448416821F0E06141F00071416008BDB6
:100BF0000010024000000140002809DB00F01F0245
:100C0000012191404009800000F1E020C0F800116E
:100C100070470000F0B40E4B1B680C46C3F3022370
:100C2000C3F10705042D00D90425191D072901D298
:100C3000002300E0DB1E012606FA05F1491E2140D3
:100C400099409E40761E16403143F0BC01F010BE24
:100C50000CED00E0064900F0070208684FF6FF03BC
:100C6000184040EA0220034A104308607047000021
:100C70000CED00E00000FA05014901200862704710
:100C800000000E4210B529A401461DCC86B08DE8A7
:100C90001D002AA02A4C006804900020012923D0BE
:100CA00002293AD010291DD161682268D20119D5D4
:100CB000C1F38342C9031DF8020009D5616804AA83
:100CC000C1F34041515C1F4AB2FBF1F1484301E0DE
:100CD0001D4948436168490204D440005FF00301A4
:100CE000B0FBF1F006B010BD226AC2F30121012968
:100CF00003D1920701D5C803F4E7022905D1626A3E
:100D0000920702D549F64040ECE70329EAD1216871
:100D10008903E7D54FF22440E4E700F033F9616836
:100D2000C1F38131491C4900DAE7000002030405E0
:100D3000060708090A0B0C0D0E0F10100102000027
:100D40000010024000127A0000093D002DE9F8432E
:100D500005460078354CC00754D0E0690026C00035
:100D600008D4E06940F08050E061E069012600F0BD
:100D7000805000902E480168C90512D40168804651
:100D800041F480710160FFF723FC074605E000BFD6
:100D9000FFF71EFCC01B642823D8D8F80000C0054C
:100DA000F6D5206A10F4407021D0A98801F4407172
:100DB00081421CD0206A1F49012220F440700A6041
:100DC00000220A602062C00711D0FFF701FC07462D
:100DD00041F2883808E000BFFFF7FAFBC11B41452C
:100DE00002D90320BDE8F883206A8007F4D5206A81
:100DF000696820F44070084320621EB1E06920F069
:100E00008050E0612878800705D56068A96820F4E3
:100E10004040084360602878C00605D56068E968EE
:100E200020F48000084360600020DBE700100240EF
:100E300000700040400442422DE9F0470F46050093
:100E400061D0434E306800F00700B84209D23068E4
:100E500020F0070038433060306800F00700B842E7
:100E600051D128683B4C810712D5400703D56068F3
:100E700040F4E06060602878000703D5606840F4C3
:100E8000605060606068A96820F0F000084360600E
:100E90002878C00728D06868012810D02168022867
:100EA00010D0890700292EDA616821F0030101437F
:100EB0006160FFF78DFB804641F288390DE02168C3
:100EC0008903EFE78901EDE7FFF782FBA0EB08015B
:100ED000494502D90320BDE8F0876068696800F0E1
:100EE0000C00B0EB810FEFD1306800F00700B84282
:100EF0000BD9306820F0070038433060306800F0CC
:100F00000700B84201D00120E5E72878400705D561
:100F10006068E96820F4E0600843606028780007B2
:100F200006D56068296920F4605040EAC10060601D
:100F300000F038F86168084AC1F30311515CC840F9
:100F40000649086006480068FFF718FE0020C2E75F
:100F50000020024000100240582E0008880D00209A
:100F6000800D00200448054900684968044AC1F31F
:100F70000221515CC8407047880D002000100240DB
:100F8000682E00080448054900684968044AC1F30E
:100F9000C221515CC8407047880D002000100240FB
:100FA000682E000812A185B00FC98DE80F0014A0AB
:100FB000144A006804905168134801F00C03042B94
:100FC00010D0082B0ED1C1F38343C9031DF80300D1
:100FD0000AD5516804AAC1F34041515C0A4A504302
:100FE000B0FBF1F005B0704708494843FAE700004C
:100FF00002030405060708090A0B0C0D0E0F10105A
:10100000010200000010024000127A0000093D00B9
:101010002DE9F84F040070D02078C04DC00749D0AA
:101020006868C0F38100012807D06868C0F38100B8
:10103000022809D16868C00306D52868800339D51D
:1010400060680028E7D035E06068B0F5803F0BD0DD
:1010500010B1B0F5A02F11D0286820F4803028609E
:10106000286820F4802002E0286840F4803028605E
:10107000606890B1FFF7ACFA06460AE0286840F4D1
:1010800080202860F0E700BFFFF7A2FA801B6428E9
:1010900073D828688003F7D50CE0FFF799FA064665
:1010A00005E000BFFFF794FA801B6428F0D8286899
:1010B0008003F7D420789A4E80074FF001094FF053
:1010C000000839D5686810F00C0F07D06868C0F3C5
:1010D0008100022809D16868C00306D42868800707
:1010E00014D52069012808D110E02069B0B1C6F8F4
:1010F0000090FFF76DFA074605E00AE1FFF768FA8E
:10110000C01B0228C4D828688007F7D52868616901
:1011100020F0F80040EAC10028600DE0C6F8008029
:10112000FFF756FA074604E0FFF752FAC01B022801
:1011300023D828688007F7D4207800072CD5794871
:10114000A169D9B1C0F80090FFF742FA074604E060
:10115000FFF73EFAC01B02280FD8686A8007F7D550
:1011600071484FF4FA510068B0FBF1F0009000BFF5
:101170000098411E0091FAD20EE080E0C0F8008095
:10118000FFF726FA074604E0FFF722FAC01B022801
:1011900075D8686A8007F7D42078400760D5E86979
:1011A0000027C00008D4E86940F08050E861E86991
:1011B000012700F0805000905C480168C90513D4F5
:1011C0000168834641F480710160FFF701FA8246AD
:1011D00006E000BFFFF7FCF9A0EB0A0064284ED838
:1011E000DBF80000C005F5D5E06801280AD008B199
:1011F000052813D0286A20F001002862286A20F010
:10120000040002E0286A40F001002862E06841F230
:10121000883B98B1FFF7DCF982460BE0286A40F082
:1012200004002862EEE700BFFFF7D2F9A0EB0A0145
:1012300059455AD8286A8007F6D50CE0FFF7C8F957
:10124000824605E0FFF7C4F9A0EB0A0159454CD8E6
:10125000286A8007F6D41FB1E86920F08050E86161
:10126000E06988B36968C1F38101022944D002288A
:10127000C6F8608004D0FFF7ABF9044638E034E0EC
:10128000FFF7A6F9074604E0FFF7A2F9C01B022802
:101290002BD828688001F7D4206AB0F5803F05D1AB
:1012A0006868A16820F4003008436860D4E9080148
:1012B0000843696821F4741108436860C6F86090B7
:1012C000FFF786F9044606E025E000BFFFF780F946
:1012D000001B022809D828688001F7D51BE000BF51
:1012E000FFF776F9001B022802D90320BDE8F88F2A
:1012F00028688001F4D40EE00128F7D06868226ADB
:1013000000F48031914204D1616A00F47010884287
:1013100001D00120EAE70020E8E7000000100240C9
:101320000000424280044242880D002000700040CC
:10133000024850F8210080B270470000006C004065
:10134000024800EB810091B201607047006C0040E0
:101350007047704710B5044600680168C90717D088
:101360004168C90714D040684007204607D5FFF7F9
:10137000F0FF21686FF004004860042002E0FFF7EE
:10138000E7FF012060742068416821F0010141609D
:1013900010BD704710B504460068016889070AD57A
:1013A0004068800707D52046FFF7F3FF20684168B3
:1013B00021F00201416003494FF400300860012030
:1013C000607410BD140401402DE9F04791460C46AD
:1013D0005FEA00084AD084B3D8F8000040684007AC
:1013E00044D4404601F093F94FF461620546B0FBE6
:1013F000F2F1B0FBF2F302FB13503C23B0FBF3F02D
:10140000B5FBF2F6607002FB1650B0FBF3F203FB83
:101410001200A070182931D31820B1FBF0F7B1FBEE
:10142000F0F200FB12102070404601F069F9411CF7
:1014300004D0A84202D9461B02E017E04FF0FF3665
:10144000A7EB071000EB4000C0EB001005EBC01548
:101450002946404601F0AAF940B9701C01D0711923
:1014600000E03146404601F08DF910B10120BDE8A1
:10147000F0873946404601F0AFF800E02170B9F13D
:10148000000F0BD0207801F09CF82070607801F0FC
:1014900098F86070A07801F094F8A0700020E6E75A
:1014A00070B5040003D0607C002610B105E0012077
:1014B00070BD2674204600F043F802206074204678
:1014C00000F098F9042578BB204601F0DCF858BB01
:1014D0002068416821F007014160A06820B11748E9
:1014E000016821F0010101601448001F0168A26831
:1014F00021F46071114301606068411C04D1012036
:10150000FFF7C0FB80B1401E21688A6822F00F02FD
:1015100042EA10428A602168CA6860F30F02CA601A
:10152000204601F0CBF808B16574C0E7E6730120EE
:101530006073A0736074002070BD0000306C0040C8
:1015400008B50068114988421FD1FFF795FB104884
:10155000C16941F00061C161C0690E4900F00060DD
:10156000009001200860014600220320FFF752FB93
:101570000320FFF741FB002202212920FFF74AFB4D
:10158000BDE808402920FFF737BB08BD0028004010
:10159000001002403C0442422DE9F8434FF000069F
:1015A00017460D46040000960FD075B1207C012827
:1015B0000ED04FF0010984F81090022060740022D0
:1015C00069462046FFF700FF20B10120BDE8F883FF
:1015D0000220FBE79DF800004FF4616148439DF84D
:1015E0000110C1EB011100EB81009DF8021000EB2E
:1015F00001082878E7B100F0DBFF4FF4616100FBE0
:1016000001F7687800F0D4FFC0EB001007EB80070B
:10161000A87800F0CDFF3918414501D217480144A0
:10162000204601F0AFF870B1042060742674CCE756
:101630004FF4616148436978C1EB011100EB81000F
:10164000A9780144E8E72068416821F0020141607F
:101650002068016841F0020101600948016841F415
:101660000031016006480830016841F40031016032
:1016700084F8119026740020A8E700008051010032
:10168000000401402DE9F0410D4604003BD0C5B3F4
:10169000207C01283AD04FF0010884F81080022005
:1016A0006074E87872B300F083FFE073687800F04C
:1016B0007FFF6073A87800F07BFFA073C2B2617BEC
:1016C000E07B01F034F820732870204601F01FF809
:1016D0004FF46161B0FBF1F1002518292DD91822D2
:1016E000B1FBF2F1A1EB011101EB4101C1EB0111E1
:1016F00000EBC1163146204601F058F80427C8B95E
:101700000BE000E004E00120BDE8F0810220FBE7EF
:10171000E07368786073A878CFE7204600F0F0FFA8
:10172000411C0AD0B04208D206490144204601F0CB
:1017300029F810B167742574E5E784F811802574E1
:101740000020E1E7805101002DE9F0410D46040041
:1017500024D01DB3207C012823D04FF0010884F849
:101760001080022060742878EAB100F021FF4FF465
:10177000616100FB01F6687800F01AFFC0EB001011
:1017800006EB8006A87800F013FF3518294620469E
:1017900001F00CF80026042710BB0FE00120BDE883
:1017A000F0810220FBE74FF4616148436978C1EBA7
:1017B000011100EB8100A9784518E7E7206841682E
:1017C00021F005014160204600F09AFF411C0AD03B
:1017D000A84208D206490144204600F0D3FF10B1C8
:1017E00067742674DAE784F8118026740020D6E73F
:1017F0008051010070B504000AD02068416821F0D2
:1018000008014160FEF7E4FE05464FF47A7608E0F1
:10181000012070BDFEF7DCFE401BB04201D9032061
:1018200070BD206840680007F4D5002070BD10B579
:10183000401EB0F1807F01D3012010BD4FF0E024A5
:1018400060610F21601701F013F80020A0610720EC
:101850002061002010BDFEE70148FEF7C1BE000078
:10186000B411002038B5406A002190F83D202B4B80
:1018700046F2A8141B68B3FBF4F3C3EBC30303EBFA
:10188000830300933BB15B1E009303681B689B05B9
:1018900005D5009BF6E7036C43F020030364436B1C
:1018A00003B19962836B03B1996203681C6824F4E5
:1018B00080641C604185436B03B15963836B03B142
:1018C000596303681C6824F001041C6090F83D40D3
:1018D0002023602C0BD0282434EA02020FD080F899
:1018E0003D3080F83E1000BFFEF792FF38BD80F813
:1018F0003D3080F83E100164FEF770FE38BD02688E
:10190000136843F0010313600268136843F48063B3
:101910001360016380F83D40E6E70000880D002079
:1019200070B5044690F83D0094F83E10102901D09F
:10193000402906D1222804D121680A6822F40062D5
:101940000A60282131EA00024FF000054FF020061E
:1019500026D021684968090505D4602803D084F899
:101960003D6084F83E50256320684168090537D5FD
:10197000416821F400614160606B3D4990F821208D
:10198000012A11D04163606BFEF744FC38B3206834
:10199000016821F00101016084F83D60606B1CE08A
:1019A000256384F83D10DFE7A06B4163A06BFEF771
:1019B00031FCA0B120684169C943490605D40069DA
:1019C000616A0870606A401C60622068016821F0EA
:1019D0000101016084F83D60A06B416B884710E015
:1019E00094F83D10602910D04169C943490605D4D7
:1019F0000069616A0870606A401C60622046FEF7F8
:101A000007FF206CC1071CD115E084F83D602564F8
:101A10004169C943490605D40069616A0870606A72
:101A2000401C60622068016821F0010101602046CD
:101A3000FEF7D4FDE5E7810703D4410701D4000791
:101A400004D52068416821F4E061416094F83D00CC
:101A5000216C49070BD5282809D10648E062256387
:101A600084F83D6084F83E502046FEF797FF70BD35
:101A7000651800080000FFFF01684A69D24352055B
:101A80000FD46FF480624A61002140F8301F202299
:101A900042738173026942F0040202610173012002
:101AA00070470020704710B5C26A438D0168042B4F
:101AB00006D0438D032B08D0438D022B1DD012E09E
:101AC0004A6822F480624A600CE04B6823F4806329
:101AD0004B60042A06D0022A04D001680A6822F466
:101AE00080620A6001680969426A1170416A491C92
:101AF0004162418D491E418510BD012A30D0102A16
:101B00002ED0042A30D0022A2ED00A6842F4007265
:101B10000A6001680969426A1170416A491C4162A0
:101B2000428D521E4285026812690A70416A491C40
:101B30004162418D491E418501684A6822F4407224
:101B40004A60202180F83D1090F83E200021402A74
:101B500080F83E100CD012210163FEF720FF10BD6B
:101B60000A6822F48062D3E70A6842F48062CFE711
:101B70000163FEF716FF10BD38B590F83D1022291D
:101B800014D1418D032912D901680969426A117083
:101B9000416A491C4162418D491E4185418D03299D
:101BA00004D10068416821F48061416038BDC26A97
:101BB000022AFBD0012901D00029F7D1274946F29A
:101BC000A81300220968B1FBF3F101EB8101009138
:101BD00001682023009C641E009422D00C68A40598
:101BE000F8D40C6824F480640C6001684C6824F418
:101BF000E0644C6001680969446A2170416A491CCB
:101C00004162418D491E418580F83D3090F83E107B
:101C100080F83E2040291DD012210163FEF7BFFE4F
:101C200038BD046C44F0200404644C6824F4E0647F
:101C30004C6001680969446A2170416A491C41622B
:101C4000418D491E418580F83D3080F83E20FEF7E9
:101C5000DFFD38BD0263FEF7A4FE38BD880D00200D
:101C600010B5C26A90F83D1021290BD1418D51B1B8
:101C7000416A026809781161416A491C4162418DDB
:101C8000491E418510BD20230021082A13D0202A97
:101C900011D012F5803F0ED00268546824F4E0643D
:101CA00054601122026380F83E1080F83D3000BF7E
:101CB000FEF776FE10BD0268546824F4E0645460B8
:101CC0000268146844F400741460016380F83D30C5
:101CD00090F83E2080F83E10402AE9D1FEF762FEDF
:101CE00010BD000010B590F83D1090F83E30C26A6B
:101CF000048DB4B1212903D0402B11D122290FD159
:101D0000418DE1B390F83E10402942D0416A02680B
:101D100009781161416A491C4162418D491E418522
:101D200010BD2129E8D120230021082A13D0202A20
:101D300011D012F5803F0ED00268546824F4E0649C
:101D400054601122026380F83E1080F83D3000BFDD
:101D5000FEF726FE10BD0268546824F4E064546067
:101D60000268146844F400741460016380F83D3024
:101D700090F83E2080F83E10402AE9D100E002E0D1
:101D8000FEF710FE10BD0068416821F480614160DB
:101D900010BDBDE8104000F0F3B8000078B590F831
:101DA0003E50C26A046B90F83D6000230168222E09
:101DB00073D1066D0EB9402D6FD0056D1DB9056943
:101DC000B5F5404F1BD0458D95B3468D484D012E3E
:101DD00020D0448D022C4DD00C6844F480640C60FB
:101DE00001684C68240579D5AA4273D0012A71D0C4
:101DF000082A6FD0102A6DD0202A6BD06EE04A6975
:101E00008A6900920A6842F480720A60016D491C76
:101E1000016578BDAA4214D10A6822F480620A6082
:101E200001684A68120504D50A6822F4806217E046
:101E3000FFE74A698A6900920A6842F400720A6000
:101E400050E0082A10D0202A0ED0122C0AD0042AE2
:101E500003D0022A01D0102AE6D10A6842F4806237
:101E60000A603BE0012ADFD00A6822F480620A603F
:101E70000168DEE7042A11D0022A0FD0102A0DD003
:101E80000C6844F400640C6001684C698C6900942F
:101E90000C6824F480640C6008E025E00C6844F4CD
:101EA00080640C6001684C698969009101684C6824
:101EB000240517D5AA4207D0012A05D0082A03D045
:101EC000102A01D0202A0DD14A6842F480524A607B
:101ED00008E0FFE74A6842F480524A6001684A69B4
:101EE00089690091036578BD48698869009078BD6B
:101EF0000000FFFF90F83E10402910D00169B1F5B5
:101F0000804F19D0016DA9B3016D012910D1416C29
:101F10005FF0F10201F4407142EAD11106E0016D77
:101F20000029416C05D0C9B241F00101006801618E
:101F3000704701F0FE01F9E790F83D102129416C4E
:101F400009D0C9B241F0010102681161416B29B1A8
:101F5000896A49B902E001F0FE01F5E7816B0029C9
:101F6000E6D0896A0029E3D00068416841F4006145
:101F700041607047FFE7416CF02201F44071CBE70C
:101F800010B590F83D10026D22B3026D012A2FD0DA
:101F9000026D022A1DD122292FD0428D0AB121299A
:101FA00033D0428D002A14D1212912D101684A6808
:101FB00022F4E0624A6001680A6842F400720A6032
:101FC00000210163202280F83D2080F83E10FEF7BA
:101FD000E9FC10BDC16C0129816C02D0C1F307215D
:101FE00008E00268C9B21161016D891C016510BD6C
:101FF000816CC9B20268116104E001680A6842F4A8
:1020000080720A60016D491CF0E7416A0268097834
:102010001161416A491C4162418D491E418510BDD3
:102020002DE9F843044600680D46DDE9089701688C
:102030009846164641F4807101604B4600224FF0ED
:1020400001112046009700F037F948B12068006878
:10205000C00502D54FF4007020640320BDE8F8836A
:10206000216805F0FE0008613B464A4615492046B6
:1020700000F056F988B920684169806900903A46B5
:102080004946204600F097F948B1206C042804D155
:102090002068016841F4007101600120DEE7F5B2BB
:1020A000B8F1010F09D02168300A08613A46494663
:1020B000204600F080F90028E7D120680561002063
:1020C000CCE700000200010038B50C4690F83D2036
:1020D00000212825954302680B4605D05169916976
:1020E000009180F83C3038BD556825F48065556016
:1020F000E243540700D50121120601D5828900E090
:10210000028B80F83C3092B2FEF769FA38BD0000CD
:10211000F8B590F83D6004460068416821F4E0613C
:1021200041602068002541690091016841F001018A
:1021300001602068016821F48061016020684168C5
:10214000090520D5474F222E48D02A2E46D0616B54
:10215000096849686185618D19B1216C41F00401FC
:102160002164416821F400614160606BFEF79EF8D4
:10217000012808D0606B4763606BFEF74BF810B125
:10218000606B416B8847608D08B320684169C94323
:10219000490708D40069616A0870606A401C60627F
:1021A000608D401E608520684169C943490608D496
:1021B0000069616A0870606A401C6062608D401E40
:1021C0006085608D18B1206C40F004002064206CA4
:1021D00000B32046BDE8F840FFF7A2BBA16B096839
:1021E00049686185618D19B1216C41F00401216458
:1021F000416821F400614160A06BFEF757F80128A7
:10220000C1D0A06B4763A06BFEF704F80028BAD0DA
:10221000A06BB6E72A2E06D12563282084F83D005E
:102220002046FEF78FFC94F83D10202028290DD081
:10223000216B222901D0222E07D1256384F83D008D
:1022400084F83E502046FEF77DFCF8BD0649E16269
:10225000256384F83D0084F83E502046FEF79EFB3F
:10226000F8BD0000651800080000FFFF70B51646B5
:102270000D4604460DE02046FFF7FEFB08B10120A5
:1022800070BD681C05D0FEF7A3F9801BA84207D8D3
:1022900035B120684069C0434007ECD4002070BDD0
:1022A000002044F8300F20216173A073216941F0B0
:1022B000200121612073E2E72DE9F0471E46904698
:1022C0000D460446C1F30747DDF8209008E0701C76
:1022D00006D0FEF77DF9A0EB0900B0420FD876B129
:1022E0002068012F18D0806925EA00000004000C46
:1022F00014D000214145EAD00020BDE8F08700203D
:1023000044F8300F20216173A073216941F020014E
:10231000216120730120F0E74069E5E70121E9E749
:102320002DE9F0479A4691460E46044600254FF0A7
:102330002008C1F3074725E020684069C0434005F5
:1023400014D42068016841F40071016021686FF4C1
:1023500080604861256384F83D8084F83E50206C9D
:1023600040F00400206484F83C501FE0B9F1FF3FC6
:1023700008D0FEF72DF9A0EB0A0149450CD8B9F1B8
:10238000000F09D02068012F13D0806926EA0000D1
:102390000004000C0BD0CFE744F8305F84F80D80C8
:1023A000A573206940F02000206125730120BDE85D
:1023B000F0874069EAE770B516460D4604460DE021
:1023C0002046FFF759FB08B1012070BD681C05D0FD
:1023D000FEF7FEF8801BA84207D835B12068406997
:1023E000C0430006ECD4002070BD002044F8300F3C
:1023F00020216173A073216941F0200121612073C4
:10240000E2E7000070B586B00024254800940194EE
:1024100002940394816941F010018161816901F0A6
:1024200010010491816941F020018161816901F00D
:1024300020010491816941F008018161816901F005
:1024400008010491816941F00401816180690122E0
:1024500000F00400134ED502049029463046FEF7E2
:10246000B2F801200095CDE90104022003906946ED
:102470003046FDF7B3FF4FF4405000900A48CDE9D5
:10248000010469463046FDF7A9FF002203212820F8
:10249000FEF7C0FB2820FEF7AFFB06B070BD0000C2
:1024A00000100240000C0140000011100D4810B552
:1024B0000B4901600C49416000214FF4804281606A
:1024C000C0E9031241618161C1610162FEF7A2F9B5
:1024D000002803D0BDE81040FDF79ABE10BD0000F3
:1024E00000540040B4110020A08601007FB50024F4
:1024F0002948039402940094264901940160611EC6
:1025000041604FF480718160FEF7CAFF08B1FDF7AA
:102510007FFE01212048FEF70BFF43F2F225A8427F
:1025200036D001268DF80C6013208DF80D008DF843
:102530000E40002203A91848FFF706F908B1FDF77D
:1025400067FE8DF8086004208DF809000F208DF8D3
:102550000A0018208DF80B00002202A90E48FFF790
:1025600091F808B1FDF754FE8DF800408DF8014058
:102570008DF802400022694607480194FFF70CF8E5
:1025800008B1FDF745FE2A4601210348FEF7D8FEB3
:102590007FBD00000028004008120020FEE77047C1
:1025A000704700000148FEF7F5BE00000812002049
:1025B000010901EB810100F00F0000EB4100C0B206
:1025C0007047002102E00A38C0B2491C0A28FAD23A
:1025D000090740EA116070472DE9F04104460025E3
:1025E000C07B627BA37B42E0012A16D0032A14D071
:1025F000052A12D0072A10D0082A0ED00A2A0CD099
:102600000C2A0AD0042A10D0062A0ED0092A0CD08F
:102610000B2A0AD0022A0DD028E01F2B0CD30C2A3B
:1026200005D101221346401C20E01E2B04D30123B8
:10263000521C1BE01C2B02D203F1010316E011D146
:1026400083B29E0710D16426B3FBF6F706FB17365C
:1026500036B94FF4C876B3FBF6F706FB17331BB950
:102660001D2303E01D2B01D1032201236D1C8D428C
:10267000BAD3D1B2E0736173DAB2A27300F057F843
:102680002073BDE8F08170B50446FDF7A1FF054653
:102690004FF47A7606E0FDF79BFF401BB04201D96C
:1026A000032070BD206840688006F4D5206841682A
:1026B00041F010014160002070BD000070B504467B
:1026C0000068416821F010014160FDF781FF054677
:1026D0004FF47A7607E000BFFDF77AFF401BB04267
:1026E00001D9032070BD206840688006F4D5002021
:1026F00070BD00000148FEF72DBE0000081200204A
:102700000168086A496A89B241EA00407047006876
:1027100081698AB2C1698BB2816989B28A4203D068
:10272000C06961F31F40704743EA02407047F0B54B
:102730006424C1EBC1030927A500072603EB01139D
:102740000329B3FBF7F100F5FA60114401440AD202
:10275000401EB0FBF4F201EB9001B0FBF5F0891ADA
:102760000844001D08E0B0FBF4F201EB9001B0FB5F
:10277000F5F0891A0844801CB0FBF6F106FB110045
:10278000C0B2F0BD70B50D4606460024FFF77BFFD2
:1027900048B93168280C08623168A8B248623046EE
:1027A000FFF78CFF00B10124204670BD70B50D46C7
:1027B00006460024FFF767FF48B93168280C886196
:1027C0003168A8B2C8613046FFF778FF00B1012434
:1027D000204670BD7047FEF7B7B970B594B0282198
:1027E0006846FDF7A6FC14210AA8FDF7A2FC002408
:1027F0000F940920012510940090119412944FF425
:10280000803004950695CDE901040226CDE90760E4
:102810004FF4E01009906846FEF7FAFB0F20CDE96F
:102820000A06A802CDE90C4002210AA80E94FEF780
:1028300003FB6802CDE90F500FA8FEF787FA14B02A
:1028400070BD7047FEE700000FB4084B10B504A937
:1028500002AA039800F02CF8044602A9002000F018
:10286000D1F8204610BC5DF814FB0000052A0008D2
:102870000907090E002804DB00F1E02080F80014AD
:10288000704700F00F0000F1E02080F8141D704741
:1028900002E008C8121F08C1002AFAD17047704729
:1028A000002001E001C1121F002AFBD17047000087
:1028B0002DE9FF4F89B09B460446002506E02528F8
:1028C0000BD05A460B999047641C6D1C2078002849
:1028D000F5D10DB02846BDE8F08F0027B84601229B
:1028E000474900E0074314F8013F203B02FA03F098
:1028F0000842F7D120782E2819D114F8010F47F09B
:1029000004072A280ED06FF02F022078A0F13001A2
:1029100009290CD808EB880102EB410100EB010802
:10292000641CF2E70A98641C50F8048B0A90207823
:102930000028CED0642808D0692806D075281ED07B
:102940005A460B9990476D1C58E00A994FF00A09B6
:1029500001C90A91002802DA40422D2102E039051E
:1029600004D52B218DF82010012103E0F90704D0B4
:102970002021F7E78A4608AE0DE00021FAE70A9920
:102980004FF00A0901C90A91F7E74946FDF7DCFB58
:10299000303106F8011D0028F7D1ADEB060000F13B
:1029A0002009780701D44FF00108C84502DDA8EBE3
:1029B000090000E000208046002706E008A85A46EB
:1029C000C05D0B9990476D1C7F1C5745F6DB04E0FA
:1029D00030205A460B9990476D1CB8F10001A8F1C0
:1029E0000108F5DC05E016F8010B5A460B999047F3
:1029F0006D1CB9F10001A9F10109F4DC641C65E763
:102A0000092801000A68531C0B601070704710B54C
:102A100004468D2000F094F92046BDE8104000F0F7
:102A20008FB9000008B5FEF797F8FFF7D6FEFFF75D
:102A3000E9FCFFF73BFDFFF759FD00F0DFF800F080
:102A4000CFF8314DDFF8C480314EEC1F4FF40067F2
:102A500000222D492F48FEF7B7FCA07878B12378E3
:102A600062792DA13048FFF7EFFE2878A1798842DE
:102A70000ED16878617888420AD1012009E0A878EF
:102A800000906B782A7829A12748FFF7DDFEECE754
:102A90000020E0702179084216D028A12248FFF7D3
:102AA000D3FE002239464046FDF78DFD4FF4FA7003
:102AB000FDF700FC012239464046FDF784FD4FF446
:102AC0007A70FDF7F7FB04E0012239464046FDF736
:102AD0007AFD0A21052000F0C1F8D6E90001124A6A
:102AE00000F04EF92821052000F0B8F800F062F956
:102AF0000D4AD6E90001143200F042F900F0B4F8B2
:102B00000A20FDF7D7FBA3E7770D0020000C01405A
:102B1000680D0020081200202564203A202564203A
:102B200020202020200000008C11002025643A2560
:102B3000643A256420202020200000002120414C00
:102B400041524D202120202020200000022210B5DB
:102B500002EB001040EA4110C4B2DA2000F0F0F8B5
:102B60002046BDE8104000F0EBB810B504468120C7
:102B700000F0E6F82046BDE8104000F0E1B810B5DE
:102B800040EA0110C4B2D52000F0DAF82046BDE8D2
:102B9000104000F0D5B810B50446D32000F0D0F8AE
:102BA0002046BDE8104000F0CBB810B50446A82080
:102BB00000F0C6F82046BDE8104000F0C1B80000A3
:102BC000CA0810B500EBC212044801F00704012145
:102BD000835CA1408B43835410BD00008C0D00200A
:102BE0000020054902464FF480630A54401C984275
:102BF000FBDB00F039B800008C0D002010B53F2041
:102C0000FFF7D3FF0020FFF7C6FF402000F098F841
:102C1000A12000F095F8C82000F092F800210120D2
:102C2000FFF794FF7F20FFF7A0FFA42000F088F8B3
:102C3000A62000F085F808210020FFF7A0FF14204F
:102C4000FFF7E5FEAF2000F07BF8FFF7C9FF00219A
:102C5000BDE81040084600F001B80000014A1070BD
:102C6000517070470000002070B50B4D002400BF6C
:102C700004F1B000C0B200F063F8002000F060F88A
:102C8000102000F05DF805EBC410802100F06AF818
:102C9000641C082CECDB70BD8C0D0020CA0810B53C
:102CA00000EBC213044801F007040121C25CA140FB
:102CB0000A43C25410BD00008C0D00202DE9F74FCF
:102CC000A2F1200A9346BAF15F0F0CD21B49C6B29B
:102CD0000A783244802A06D889464978C0F3072703
:102CE000C819402802D90020BDE8FE8F00251CE04D
:102CF0000AFB07510198002430F8118012E000BF50
:102D000008FA04F0000499F8011099F80000294429
:102D10002044C9B2C0B202D5FFF7C0FF01E0FFF7FF
:102D20004FFF641CA642EBDC6D1CAF42E0DC99F85F
:102D300000105846314489F80010D5E70000002003
:102D400001B584B001214FF47A7204A88DE8070020
:102D50000B46002278210248FDF726FE05B000BD93
:102D6000B41100200EB54FF47A728DE807000123EC
:102D7000402278210148FDF717FE0EBDB411002056
:102D800070B505460A4814460E46C0E9015109E0EF
:102D900031462846FFF792FF2178884201D0C8B219
:102DA00070BD641C2278002AF2D1D0B270BD000040
:102DB000000000201149887878B1012812D002283B
:102DC00012D0032812D0062812D0042812D00528C9
:102DD00012D10BA10D48FFF737BD0A790CA10B48A2
:102DE000FFF732BD0DA1F5E70FA1F3E711A1F1E760
:102DF00013A1EFE715A1EDE770470000700D00206B
:102E000053657420436C6F636B204D00A01100204C
:102E100054696D652C2025642020200053657420A2
:102E2000416C61726D20480053657420416C617281
:102E30006D204D00416C61726D205365742120003E
:102E4000436C6F636B2053657421200053657420BD
:102E5000436C6F636B20480000000000000000001E
:102E60000102030406070809000000000102030430
:102E7000902E0008000000208C0D00009801000832
:102E8000583300088C0D002094080000A02800088A
:102E90000230000102130C0241186124721B02016E
:102EA0001747438019022009C07FC07F8019003373
:102EB00008530033026125100C1E003F80758065A9
:102EC0000074003C0C100607800580650210047534
:102ED000003F0E1204022149A01C7000D840D8C047
:102EE000D880D900730006000C801BC036C066C0B5
:102EF00046C006800348515C0012111E000CC03C05
:102F0000C066806380618063C03E801CD80116B2B9
:102F1000100600000100036412067CA1FE320414B6
:102F20001004030001229006200010001816610210
:102F3000413212181E362044322DC40624336C0050
:102F4000051EC0FFC0FF9EF5A42520021108C7166C
:102F50001E3C052AEC610C32030261D4690632186A
:102F600002B568155A2102126D02310A15D6923F38
:102F700074140406000E90B404360026204526A5DD
:102F8000F832733E457221687008300060807F809F
:102F90007FC810061C003E00630212035010060E8C
:102FA0000003800102F0046180736C216E10041E26
:102FB000001672300436006642C16C127F02326025
:102FC0000218046E007F18011248219011D8512474
:102FD000419AB36180D8215A31AE96032006100879
:102FE00020397A30046100210C452AE2616C6200CC
:102FF00062200673803F801DD8C200D80512A00150
:103000001210011226F91C1F80002A0314040E005E
:1030100038060C071438000E800380B003557CB5C9
:1030200084CD21031E408C031E1CA6031404010042
:10303000079E127010A11E100C1F803FC071C0604F
:10304000C000C001701607B60D10380425681C04B6
:103050003180719E033A6F4010046F80679616327C
:10306000EA8DA80325D25D6004112C16312211349B
:103070001158110275D438047C007E1C2102227E76
:103080000C39921663ECD27E6C5661FC390215D471
:10309000B631F8127C324663B275AC4154B67C1836
:1030A0006142894CB9AC011624310201139062804F
:1030B0007611E0996491883970A19865861A3F2A43
:1030C0000D12A40521186D7C05F20102EA61F433AA
:1030D000C060EC12660214046C007852210A354874
:1030E000956802146002A1FC15F4100871C07BC041
:1030F0007AC06A0244046EC064AAC5B015F23004F6
:103100007180790225F61E6DE40532670215060D01
:10311000135C04858ECD5C043E7EC2039661EE0591
:103120001368D148116E115A03123F4048414611AD
:10313000FAF1FC1A0ED219801D98043E389C0646FE
:1031400003B0B544ADB8050D1032070510D485DEC7
:10315000D58C29E039EE7E315C072D08035E0E0424
:1031600007216C81011004CC804C0210045E805257
:1031700002AA731C2404C0C080D62C0433003B0870
:10318000071D86061C061E001F003B70039004618D
:10319000C0C0244DB4052D2C0702151EB42D740398
:1031A0006DEC046D0606CDA005120F0202190C028B
:1031B00021205E001E056D7A076D2C074D6A068D75
:1031C000AE06021906024DCE0641CC2E124008BDB5
:1031D0000C030D27D5083FE0FF3C033E38BC070138
:1031E00024331DD0042DA006428008FC0663807F96
:1031F000C0381803AD2E0625D41E7F64060D10902E
:10320000073DEC065D8004BD84037D9E03A0041D84
:10321000803F482D16060112483D38063D9004BFF8
:103220008071CC033707C08E3D880409158855DAB4
:1032300001116A1D10072D3A05923ED81E6F060631
:10324000DE718A038D74074D5C071E3EB6050D14B2
:10325000E007011A221C04060046B603823C6C5D9E
:1032600086041E6CD4054E7686039D8004011442AC
:10327000CD4C086DA0071EDD4609A004CEC0CC02CF
:10328000FDE309011AD80D109C08FD3405514605CF
:1032900012F6DDEE050515683102914A1E67FE053E
:1032A0001E396204A102F19029882D7C062D940319
:1032B0001D2A08B27F904D82082D740682180219CB
:1032C000B4FE0FE007CD800419D0EF803D2603DD6A
:1032D00084042D82040511682102330055021277FF
:1032E00002122202F16C6D8C0B3D84043DB6030189
:1032F000118E323126ADEE041A1C069270902D3CD0
:103300000C9D220A3D440C4D5E0C9C040380072654
:1033100004213A321CAE59661E80B0050D1B5804BC
:10332000698E1E387A0C8DB6041E0EB8086DBA0868
:103330004D5607D0043C0038DC1E38EC07EE47A998
:10334000092F0B129D093DFC0B6600E121086A1054
:08335000CA00040024F400008F
:04000005080000ED02
:00000001FF
