:020000040800F2
:10000000C02100200101000847100008150D00085C
:1000100045100008CB010008A110000800000000F6
:100020000000000000000000000000004B1000086D
:10003000CD01000800000000491000084D10000824
:100040001B0100081B0100081B0100081B01000820
:100050001B0100081B0100081B0100081B01000810
:100060001B0100081B0100081B0100081B01000800
:100070001B0100081B0100081B0100081B010008F0
:100080001B0100081B0100081B0100081B010008E0
:100090001B0100081B0100081B0100081B010008D0
:1000A0001B0100081B0100081B0100081B010008C0
:1000B0001B0100081B0100081B0100081B010008B0
:1000C0001B0100081B0100081B0100081B010008A0
:1000D0001B0100081B0100081B0100081B01000890
:1000E0001B0100081B0100081B010008DFF80CD0F1
:1000F00000F02AF800480047F5100008C021002051
:100100000648804706480047FEE7FEE7FEE7FEE7B1
:10011000FEE7FEE7FEE7FEE7FEE7FEE79F100008CA
:10012000ED000008D2B201E000F8012B491EFBD21D
:1001300070470022F6E710B513460A4604461946F2
:10014000FFF7F0FF204610BD064C074D06E0E068C3
:1001500040F0010394E8070098471034AC42F6D30E
:10016000FFF7C8FFE01300080014000870B58D18F1
:1001700010F8014B14F0030201D110F8012B2311E8
:1001800006D110F8013B03E010F8016B01F8016B98
:10019000521EF9D1ABB110F8012B04F00C048A1AED
:1001A0000C2C03D0A2EB84129B1C08E010F8014B2E
:1001B000A2EB0422F8E712F8014B01F8014B5B1E99
:1001C000F9D5A942D4D3002070BDFEE7704770472F
:1001D00070B5044600F004F90546601C02D00448DE
:1001E0000078044400F0FCF8401BA042FAD370BD34
:1001F000581900202DE9F84FDFF8B891002409F1D3
:10020000040A0AF1040B23460F270BF1040EC9E080
:100210000125A5402A40AA427DD1674ED1F804C0ED
:10022000ACEB0608B44532D014DCBCF1030F3AD075
:1002300009DCBCF1000F2AD0BCF1010F1CD0BCF1CD
:10024000020F31D11DE0BCF1110F17D0BCF1120F1C
:100250002AD119E0B8F5881F19D006DCB8F5803F1F
:1002600015D0B8F5801F1FD111E0B8F5001F0ED0D2
:10027000B8F5041F18D10AE0CB6815E0CB681B1D48
:1002800012E0CB6808330FE0CB680C330CE08B68CE
:100290002BB1012B4FF0080303D0456104E0042388
:1002A00002E0056100E00023FF2A01D8064601E0D4
:1002B00000F104064FEA840501D9A5F12005D6F81E
:1002C000008007FA05FC28EA0C0803FA05F548EA5D
:1002D0000508C6F800804D68ED0062D5374DAE695F
:1002E00046F00106AE61AD6924F0030605F0010594
:1002F0000095334D06EB050CDCF80850A607360FC9
:1003000007FA06F825EA0805DFF8B880404503D16A
:100310004FF0000817E044E0DFF8AC80404502D120
:100320004FF001080FE0DFF8A480404502D14FF004
:10033000020808E0DFF89880404502D14FF003083A
:1003400001E04FF0040808FA06F848EA0508CCF87E
:1003500008804D68D9F80060ED034D4601D516437D
:1003600000E096432E604D68DAF80060AD03554614
:1003700001D5164300E096432E604D68DBF800601F
:10038000ED025D4601D5164300E096432E604D68B0
:10039000DEF80060AD02754601D5164300E09643D5
:1003A0002E60641C0D682A46E5407FF431AFBDE83D
:1003B000F88F0000000401400000111000100240FE
:1003C0000000014000080140000C01400010014005
:1003D000001401400AB1016170470904FBE7000005
:1003E00001488068704700005819002070B504006B
:1003F00025D094F83D00002520B984F83C502046D3
:1004000000F050F9242084F83D002068016821F0B4
:10041000010101602068016841F400410160206829
:10042000016821F40041016000F08AFA4D4A6168D8
:10043000914201D84C4900E04C49884201D2012048
:1004400070BD4B492368B0FBF1F15E6826F03F06B2
:100450000E435E606368934206D94FF49673594326
:100460004FF47A73B1FBF3F12368491C1E6A26F03E
:100470003F06314319626168914210D84900401E1D
:10048000B0FBF1F2521CC2F30B02042A01D2042089
:1004900022E0B0FBF1F0401CC0F30B001CE0A268AE
:1004A000F2B301EBC10303EB0116431EB3FBF6F3FA
:1004B0005B1C43F480431B0549D092B301EBC1029E
:1004C00002EB0111401EB0FBF1F0401CC0F30B0029
:1004D00040F4804040F400402168CA694CF6FF7344
:1004E0009A431043C861D4E90710014320680268A9
:1004F00022F0C00211430160D4E9030101432068E6
:10050000826848F2FF339A4311438160D4E90501C0
:1005100008432168CA6822F0FF021043C86001E066
:100520000EE016E02068016841F0010101602564D9
:10053000202084F83D00256384F83E50002070BDE3
:1005400001EB4106431EB3FBF6F35B1CB3E701204E
:10055000C2E701EB4101401EB0FBF1F0401CC0F3CB
:100560000B00B7E7A086010080841E0000093D0053
:1005700040420F002DE9FF4F83B09A46DDE9119705
:1005800093460446DDF84080FFF72AFF054694F8BD
:100590003D0020287FD119230122404920460095A3
:1005A00000F04AFC002876D194F83C00012872D073
:1005B000012084F83C0020680168C90703D1016864
:1005C00041F0010101602068016821F400610160CF
:1005D000212084F83D00402084F83E000026266457
:1005E000C4F82480A4F82A90608D20852C48E0620D
:1005F000CDE9007553465A462046049900F0A2FB07
:1006000070B930E02A463946204600F094FC58B1D3
:10061000206C042804D12068016841F40071016055
:10062000012007B0BDE8F08F606A2168007808619A
:10063000606A401C6062218D491E89B22185628DED
:10064000521E628522685369DB435B070BD469B194
:1006500000781061606A401C6062208D401E208519
:10066000608D401E6085208D0028CBD12A463946FA
:10067000204600F0BBFB0028CAD154F83D0B0168AE
:1006800041F400710160202004F81E09E6776677C6
:100690000020C6E7FFE70220C3E7000002001000C9
:1006A0000000FFFF10B586B000210091019102917A
:1006B000039100680F4988421AD10F4CA06940F09D
:1006C0000800A061A069694600F008000490C020FD
:1006D000009012200190032003900848FFF78AFD44
:1006E000E06940F40010E061E06900F4001004905B
:1006F00006B010BD0054004000100240000C014044
:1007000002488168027811448160704758190020BE
:10071000074810B5016841F010010160032000F0A6
:1007200067F8002000F006F800F024F8002010BD63
:100730000020024070B50D4D04464FF47A712878C0
:10074000B1FBF0F00A490968B1FBF0F000F0CEFA15
:1007500048B9102C07D200222146501E00F028F87C
:1007600000206C6070BD012070BD00005819002091
:10077000641900200C4808B5816941F001018161CC
:10078000816901F001010091C16941F08051C161AD
:10079000C06900F0805000900448416821F0E06199
:1007A00041F00071416008BD0010024000000140AE
:1007B000F0B40E4B1B680C46C3F30223C3F10705CC
:1007C000042D00D90425191D072901D2002300E0BA
:1007D000DB1E012606FA05F1491E214099409E4084
:1007E000761E16403143F0BC00F05BBC0CED00E01F
:1007F000064900F0070208684FF6FF03184040EA78
:100800000220034A10430860704700000CED00E02E
:100810000000FA052DE9F0470F46050061D0434E70
:10082000306800F00700B84209D2306820F00700B5
:1008300038433060306800F00700B84251D1286872
:100840003B4C810712D5400703D5606840F4E06057
:1008500060602878000703D5606840F460506060ED
:100860006068A96820F0F000084360602878C0073D
:1008700028D06868012810D02168022810D0890784
:1008800000292EDA616821F0030101436160FFF75E
:10089000A7FD804641F288390DE021688903EFE722
:1008A0008901EDE7FFF79CFDA0EB0801494502D95E
:1008B0000320BDE8F0876068696800F00C00B0EBC9
:1008C000810FEFD1306800F00700B8420BD93068D3
:1008D00020F0070038433060306800F00700B8426D
:1008E00001D00120E5E72878400705D56068E96870
:1008F00020F4E060084360602878000706D560684F
:10090000296920F4605040EAC100606000F028F8D6
:100910006168084AC1F30311515CC8400649086088
:1009200006480068FFF706FF0020C2E700200240EB
:1009300000100240C8130008641900205C19002050
:100940000448054900684968044AC1F30221515C22
:10095000C84070476419002000100240D8130008F6
:1009600012A185B00FC98DE80F0014A0144A0068C9
:1009700004905168134801F00C03042B10D0082B8D
:100980000ED1C1F38343C9031DF803000AD5516892
:1009900004AAC1F34041515C0A4A5043B0FBF1F054
:1009A00005B0704708494843FAE700000203040510
:1009B000060708090A0B0C0D0E0F101001020000AB
:1009C0000010024000127A0000093D002DE9F84FA6
:1009D000040070D02078C04DC00749D06868C0F3CB
:1009E0008100012807D06868C0F38100022809D17E
:1009F0006868C00306D52868800339D56068002878
:100A0000E7D035E06068B0F5803F0BD010B1B0F5AD
:100A1000A02F11D0286820F480302860286820F4A6
:100A2000802002E0286840F480302860606890B13F
:100A3000FFF7D6FC06460AE0286840F480202860CC
:100A4000F0E700BFFFF7CCFC801B642873D8286850
:100A50008003F7D50CE0FFF7C3FC064605E000BFB6
:100A6000FFF7BEFC801B6428F0D828688003F7D409
:100A700020789A4E80074FF001094FF0000839D5D1
:100A8000686810F00C0F07D06868C0F38100022876
:100A900009D16868C00306D42868800714D5206986
:100AA000012808D110E02069B0B1C6F80090FFF726
:100AB00097FC074605E00AE1FFF792FCC01B0228FD
:100AC000C4D828688007F7D52868616920F0F80045
:100AD00040EAC10028600DE0C6F80080FFF780FC06
:100AE000074604E0FFF77CFCC01B022823D82868D7
:100AF0008007F7D4207800072CD57948A169D9B1AF
:100B0000C0F80090FFF76CFC074604E0FFF768FCB4
:100B1000C01B02280FD8686A8007F7D571484FF4C8
:100B2000FA510068B0FBF1F0009000BF0098411E40
:100B30000091FAD20EE080E0C0F80080FFF750FC90
:100B4000074604E0FFF74CFCC01B022875D8686A12
:100B50008007F7D42078400760D5E8690027C000F7
:100B600008D4E86940F08050E861E869012700F0A6
:100B7000805000905C480168C90513D40168834621
:100B800041F480710160FFF72BFC824606E000BF54
:100B9000FFF726FCA0EB0A0064284ED8DBF8000023
:100BA000C005F5D5E06801280AD008B1052813D0A2
:100BB000286A20F001002862286A20F0040002E080
:100BC000286A40F001002862E06841F2883B98B151
:100BD000FFF706FC82460BE0286A40F0040028621A
:100BE000EEE700BFFFF7FCFBA0EB0A0159455AD81E
:100BF000286A8007F6D50CE0FFF7F2FB824605E095
:100C0000FFF7EEFBA0EB0A0159454CD8286A800794
:100C1000F6D41FB1E86920F08050E861E06988B33C
:100C20006968C1F38101022944D00228C6F86080B6
:100C300004D0FFF7D5FB044638E034E0FFF7D0FBE3
:100C4000074604E0FFF7CCFBC01B02282BD828681E
:100C50008001F7D4206AB0F5803F05D16868A168AB
:100C600020F4003008436860D4E90801084369684B
:100C700021F4741108436860C6F86090FFF7B0FB78
:100C8000044606E025E000BFFFF7AAFB001B022890
:100C900009D828688001F7D51BE000BFFFF7A0FB4B
:100CA000001B022802D90320BDE8F88F28688001C4
:100CB000F4D40EE00128F7D06868226A00F480318D
:100CC000914204D1616A00F47010884201D0012081
:100CD000EAE70020E8E7000000100240000042427E
:100CE00080044242641900200070004010B5401E8C
:100CF000B0F1807F01D3012010BD4FF0E02460618E
:100D00000F21601700F0CDF90020A06107202061BD
:100D1000002010BDFEE701684A69D24352050FD496
:100D20006FF480624A61002140F8301F2022427334
:100D30008173026942F0040202610173012070476D
:100D4000002070472DE9F843044600680D46DDE9B0
:100D5000089701689846164641F4807101604B4639
:100D600000224FF001112046009700F065F848B1CD
:100D700020680068C00502D54FF40070206403208D
:100D8000BDE8F883216805F0FE0008613B464A464D
:100D90001549204600F084F888B9206841698069C7
:100DA00000903A464946204600F0C5F848B1206C0C
:100DB000042804D12068016841F400710160012019
:100DC000DEE7F5B2B8F1010F09D02168300A0861F9
:100DD0003A464946204600F0AEF80028E7D12068A0
:100DE00005610020CCE700000200010070B5164646
:100DF0000D4604460DE02046FFF78DFF08B10120A7
:100E000070BD681C05D0FFF7EBFA801BA84207D81D
:100E100035B120684069C0434007ECD4002070BD64
:100E2000002044F8300F20216173A073216941F044
:100E3000200121612073E2E72DE9F0471E4690462C
:100E40000D460446C1F30747DDF8209008E0701C0A
:100E500006D0FFF7C5FAA0EB0900B0420FD876B173
:100E60002068012F18D0806925EA00000004000CDA
:100E700014D000214145EAD00020BDE8F0870020D1
:100E800044F8300F20216173A073216941F02001E3
:100E9000216120730120F0E74069E5E70121E9E7DE
:100EA0002DE9F0479A4691460E46044600254FF03C
:100EB0002008C1F3074725E020684069C04340058A
:100EC00014D42068016841F40071016021686FF456
:100ED00080604861256384F83D8084F83E50206C32
:100EE00040F00400206484F83C501FE0B9F1FF3F5B
:100EF00008D0FFF775FAA0EB0A0149450CD8B9F103
:100F0000000F09D02068012F13D0806926EA000065
:100F10000004000C0BD0CFE744F8305F84F80D805C
:100F2000A573206940F02000206125730120BDE8F1
:100F3000F0874069EAE770B516460D4604460DE0B5
:100F40002046FFF7E8FE08B1012070BD681C05D0FF
:100F5000FFF746FA801BA84207D835B120684069E0
:100F6000C0430006ECD4002070BD002044F8300FD0
:100F700020216173A073216941F020012161207358
:100F8000E2E7000070B586B000241C48009401948C
:100F900002940394816941F010018161816901F03B
:100FA00010010491816941F020018161816901F0A2
:100FB00020010491816941F004018161816901F09E
:100FC00004010491816941F00801816180690C4E3E
:100FD00000F008004FF400550490002229463046E6
:100FE000FFF7F8F901200095CDE9010402200390F4
:100FF00069463046FFF7FEF806B070BD00100240AB
:10100000001001400D4810B50B4901600C494160CA
:1010100000214FF480428160C0E903124161816187
:10102000C1610162FFF7E2F9002803D0BDE810407A
:10103000FFF7CDB810BD000000540040681D00202F
:10104000A0860100FEE7704770477047FFF758BB66
:1010500030B58FB028216846FFF76BF814210AA835
:10106000FFF767F801210804CDE90010002402947D
:1010700002250491CDE907504FF4E010099068462D
:10108000FFF7A4FC0F20CDE90A056802CDE90C406A
:1010900002210AA80E94FFF7BDFB0FB030BD7047C8
:1010A000FEE70907090E002804DB00F1E02080F8C4
:1010B0000014704700F00F0000F1E02080F8141DCC
:1010C000704702E008C8121F08C1002AFAD1704711
:1010D0007047002001E001C1121F002AFBD17047B8
:1010E00010B504468D2000F035F92046BDE81040CB
:1010F00000F030B9FFF70CFBFFF7AAFFFFF742FF44
:10110000FFF780FF0C4D0D4C4FF4FA7600F080F89D
:10111000D5E900010AA200F03DF900F06DF8D4E92C
:10112000000108A200F036F900F066F800F0A6F819
:101130003046FFF74DF8E9E7481900205019002024
:101140000000000041424300022210B502EB0010F3
:1011500040EA4110C4B2DA2000F0FCF82046BDE8B5
:10116000104000F0F7B810B50446812000F0F2F806
:101170002046BDE8104000F0EDB810B540EA01107F
:10118000C4B2D52000F0E6F82046BDE8104000F0DB
:10119000E1B810B50446D32000F0DCF82046BDE8E5
:1011A000104000F0D7B810B50446A82000F0D2F8DF
:1011B0002046BDE8104000F0CDB80000CA0810B5C8
:1011C00000EBC212044801F007040121835CA14036
:1011D0008B43835410BD000068190020002005498E
:1011E00002464FF480630A54401C9842FBDB00F037
:1011F00045B800006819002004480021021D017054
:10120000417852781144417070470000000000207E
:1012100010B53F20FFF7C7FF0020FFF7BAFF4020BF
:1012200000F098F8A12000F095F8C82000F092F89E
:1012300000210120FFF788FF7F20FFF794FFA42003
:1012400000F088F8A62000F085F808210020FFF7BC
:1012500094FF1420FFF744FFAF2000F07BF8FFF766
:10126000BDFF0021BDE81040084600F001B80000B5
:10127000014A1070517070470000002070B50B4D8E
:10128000002400BF04F1B000C0B200F063F80020F9
:1012900000F060F8102000F05DF805EBC41080212C
:1012A00000F06AF8641C082CECDB70BD68190020A3
:1012B000CA0810B500EBC213044801F0070401216D
:1012C000C25CA1400A43C25410BD0000681900204E
:1012D0002DE9F74FA2F1200A9346BAF15F0F0CD225
:1012E0001B49C6B20A783244802A06D88946497812
:1012F000C0F30727C819402802D90020BDE8FE8F97
:1013000000251CE00AFB07510198002430F81180E9
:1013100012E000BF08FA04F0000499F8011099F8EF
:10132000000029442044C9B2C0B202D5FFF7C0FF73
:1013300001E0FFF743FF641CA642EBDC6D1CAF42EB
:10134000E0DC99F800105846314489F80010D5E7E0
:101350000000002001B584B001214FF47A7204A886
:101360008DE807000B46002278210248FFF702F9BA
:1013700005B000BD681D00200EB54FF47A728DE8EF
:1013800007000123402278210148FFF7F3F80EBD42
:10139000681D002070B505460A4814460E46C0E98F
:1013A000015109E031462846FFF792FF2178884233
:1013B00001D0C8B270BD641C2278002AF2D1D0B22C
:1013C00070BD0000000000200000000000000000D0
:1013D00001020304060708090000000001020304DB
:1013E0000014000800000020681900006C010008CB
:1013F0000C1E00086819002058080000D2100008D0
:10140000021A0001722002210C30040000500281F7
:1014100020211052F8042118300C20007800A00080
:1014200070002800F0301006C000C800101610062A
:1014300040009800184012401E12A0061006A80096
:1014400090006810123002211E6170412C2102129E
:10145000200C520008521018216012A85E12F804E5
:1014600032A89441A252F8A28198415861A6021173
:10147000F8DA212221725208A032802A100470006A
:1014800088AA12A8B61288C621D0766004527020AD
:10149000120806128002215632F8401230144130F0
:1014A000210C1250DC32F8B6212016800A72082076
:1014B00032386A12F06641102140A18252701A61DE
:1014C00020411032786676E094B200EE459C4520CB
:1014D00061CE25369208FE6502611A655041D076CC
:1014E00030E025001006A800B800B0E236780032DF
:1014F000508232F8925200BA610641B0250C5280F7
:10150000D0411A728820250021F08530811021F009
:101510005278403298E652003A416E21709A7082B9
:101520004540490E1A10403260301A90521AC05687
:101530003290A092800221F810048800D8D02102B5
:1015400041C021B812C81072986081B081C081A0DA
:10155000612069B06500617045007670E03AF898E6
:101560008D3403D28860810E92502041A2525020C7
:101570007650768110615049703A704621E05E786D
:101580002E03210225B02502A5FE293A610285D04D
:101590000D14EC0321503A60F0B21018326072362C
:1015A00090A025BE3EB01E031AC8247E00340369F5
:1015B00000216836685E3E98E0036D540325F84DBF
:1015C00020033E284A039E20B2031E707203212E80
:1015D000B20860490029949A60002D1404A90029DA
:1015E0003C8902812C61302DFE035AD00252A81092
:1015F000A1609A000492702021DE4D12043200D0C6
:1016000061A06140692045644902BEF08E047628DD
:101610004649428510A900612069004120B650A8C2
:101620006D020461105EF852055EF830054DF0035E
:101630004D30058DAC054980611A6D20042D7A0569
:10164000033B100001C3E0030222C002620102A1B9
:10165000248D2706A33C1E020124682016CE01CE4D
:1016600003DE039E039C039C07FF3FFF7F38073880
:101670000F7802130EFF01880DF01EF01CE01CE035
:101680003CE03DE039C35009FC03FE0FEE1FE01EB5
:1016900002A00B1FE00FE007F003FC01FE0250095F
:1016A0003DFC3FF00FE001E0AC942B033E07F78FC9
:1016B000E78EE79EE3BCE3B8E7F8E7F0F7E03FC06A
:1016C00001FF03FF07F307F30FF31EF33CF338F3B7
:1016D000787FF03FE0042307F88C321F02120F4E90
:1016E000041A120F801FC37FC3FBE7F3F7F1F7F073
:1016F000FFF07FF03EF87F7CFF3FEF1F382530057D
:10170000240410063F007C00F0AA15642307800221
:10171000930F000223800F14100AC007C003E001DA
:10172000F0017C2E2E0F020460047E001F141EF0B8
:10173000AB041AF8A1810212F81272F05413001FC0
:101740002E1D78054194081326CE39FF3F7F3F2098
:10175000037003F807780F3C1F3806148900210234
:1017600025A0A11209335E11F611A40C0414018006
:1017700003AD04080542FE3FFE3FC68D47072553D3
:10178000121E02123C02252A2528318415B0257C20
:101790000111211B00F008480B7C1F3E3E1E3C1F20
:1017A0007C1F7C9F610221128C0B1E3C3E3E7C1FE5
:1017B000F80FF0076705157E100407F03F02021AC4
:1017C000010219F291E0300AE00FF83F7C3C3C0046
:1017D0003E0221A2267CCA3B01E01831B91117C58F
:1017E000148007F00FF81F7C1C321130120FAE115D
:1017F00040521E0298083E007C1CF81FE0A42920DD
:1018000011021B01F802290413781E02133C78010F
:1018100025D4A9489D7403221F0271551D76031813
:1018200004F81FFCB821AA521E7EE1681D9203181D
:1018300004078E0F7E31B81C04003CF89403500757
:101840003E7F1F7E0F3C029C093E1F1E3E1FFC0F69
:10185000F04404251267FF3F83061038A23E0F1E96
:1018600003931F00682004F807FC4B10041E1E3E63
:101870000215A5258A1408F80FFC1E3E3E1FB21261
:101880000F02B4071F3C3E3FFC1FA025D444041E9A
:101890003E3CD4310240083C3F3EFF1FEF07E521AC
:1018A000D01FF8380F040A261F5A011816012434D5
:1018B0005D0C03CE030C031203ED20083F00FC0077
:1018C000F003C0091405FE003FC0303EFC06040EC4
:1018D0001D03C40525CEE10A0D182B031DBE071CF0
:1018E000047E801FF4043F017E31043006F801E0DD
:1018F0000780099E00140517F01FC413381F024DFE
:1019000046032D4203459C1D8E045560210A96C056
:101910006C1EF8B00530101E1F0F3E7F3CFF78EFA5
:1019200079C773C7F38F02129F02180AFF73FF7BF8
:10193000F779003C1C080F12F80386061D480311B6
:10194000022D6D032F7C0E62061E3E02031FFF3F19
:1019500091051D9305211BFDE1081A3F665D8B066D
:10196000180B3E3C7C3CF03FF83F7E3C0A39741E2D
:101970001F4003FEF854044807FF01FF07871FC5F7
:101980009D47053A7CE1FC073F831FFF07FFCC051D
:101990004C06F07FFC7F7E1B06D1021E1F4F03F416
:1019A000077E78F87FE07F922DF003823E023DCCE7
:1019B000039110CD100451349F1FFF7803E3001EE4
:1019C000103102ED3805300403FF0FD021C23DEF86
:1019D00003127F0225431102F4073E8F1FFF0FFE03
:1019E0006C7D08035102E005FF7FFF7F140112D0D8
:1019F000ED2A08A1020112D02D4A042197011002FC
:101A00003DBA061D7403F2C034161FCC2C063C3CB4
:101A1000783CF00A0811201280041006E03FF03DE7
:101A2000F014167CE625DCFD5707021C3E0201126D
:101A30009C2DD50419E125971005FE7FFF7702380C
:101A40000BF7F7E7F7E7F3E7F3C7F387091170350B
:101A50005410077E0F7F0F7F8F021010CF7FEF7B18
:101A6000EF79FF79FF78FF787F783F022922F93CF0
:101A70001F07FC50065D4C0692F8023D5206CF3E11
:101A80003EAC045D820529F6533E0F021C051F3E45
:101A90003F3EE208D23FE6012F68DC04F8077C4CA9
:101AA000041EF040034F7E3C4203163E761EFC426D
:101AB00003256C36F86A06131E6C4C06FC07FE1FE5
:101AC0000EB3061DBF061EC082051C04FE037FF96F
:101AD000053DAB051004203E3CAA0E121F9E0409D2
:101AE0001A3C0D124805356C0113023DEE03051337
:101AF0003835B839FC3D14043DF3052DD0094EF8B6
:101B00003F04021207682D77042D790425FA15FE8B
:101B10001C0573F77BF70E03210130067E7F7E3FA5
:101B20003E01F1683D51064F3E3E800632E0583D91
:101B300066063D68064DB004011034420798312115
:101B40003138051F042D98032D01074E3E1E082D28
:101B50001C072D380A4DD9081DED0721209D3E0494
:101B60004D520A0125021DE8042DC4052DFD07254F
:101B7000CC2D5C042D820A2D800A1DE2052DA206C3
:101B80002D3009D11F2200331D0D0B022900021335
:101B90007FF0A43EC0520A6DE4051E788E0A2F38ED
:101BA0000F3C0C2D3F0C110B11110D3AC20C8DFE88
:101BB000060E3CF00B0D1E004C081D98094DA305A8
:101BC0001AFEEA19001C077C3E783E7C7EFC0BAABC
:101BD000CFD8823C022C06F83DFE3F3EB003823C4B
:101BE000022DC6041D88080C04153FF03BEE0A6D5B
:101BF000B6054D88062D7E063D0D0ADE87B005929E
:101C00001F0215B23F1F3FE8083DA2052DAD0C1D78
:101C1000BC051C043F3C7FCC080315DF0FD03E03FE
:101C200030093136392E516AD207685C04FF01E170
:101C3000D8072FC0070E06410A0112020D146B10BF
:101C400012EF9C627F9CE2789C4D9E0A1F7C388E2E
:101C500007953816FC381C049E3F1FEA042DB20776
:101C6000E1029DC0091D0C0D7D380B1D6A074D3E1C
:101C700009011202ADFB108D23141EF816083D0653
:101C80000B01170219A61E71C20795D43E1F5008FA
:101C90005C08F83CF03DE03DC082064D1605D19C45
:101CA0000E1C7FF60B81020D14680D2F9EF7FC0EA3
:101CB000E009FFFFE7FBE7F9C7F10209143C05263D
:101CC000380D118606AE3CD40C2D080B0D144805BA
:101CD00055380914D82A3ED8B5CA99081EEE3403DF
:101CE0001E7E3E0D2F1E7C690C51021E7C40030C93
:101CF00006143EFE1FDE0FC5081E7FF608A806E785
:101D00001FC71F87ED81020514042D86064D8D0C1B
:101D10001DB80B110E5D060D0D1480065DF2041941
:101D2000D80D120A0519F2071503FFA0BDE7107DB3
:101D30006A0A30047E3CFED00114342F07F01A0AE0
:101D40007D82063E1EBF0A0E160F80065D86061CAB
:101D500005F0E3F1E3820622F7023F7F7780064F2A
:101D60007F7F7E060D1080066D8E081D210B5D8421
:101D7000062D4E061DFB065D990615E80D1550054E
:101D80008D1E073DF5077D1C077DF8113D780DEF91
:101D9000007FFA097D84066D82062DEA0DCE3C8017
:101DA0000663FE01447EC0EE0F1DC80D2DC2091D45
:101DB0008C106DF40C51201F03FE7C0CED6810019B
:101DC00022021D740C6E3F420D4162415E1EFE31C7
:101DD0000DA11051021E03620A0D1758100C0A13B0
:101DE000073FC77FE773FFF17E37061E06C0141E4C
:101DF0000CA2181B101A705C0505002001AF143DE1
:0C1E00006E1800040024F4000000000034
:04000005080000ED02
:00000001FF
