:020000040800F2
:10000000E8150020010100083F110008C10D00089B
:100010003D110008F70100089911000800000000D8
:100020000000000000000000000000004311000874
:10003000F901000800000000411100084511000806
:100040001B0100081B0100081B0100081B01000820
:100050001B0100081B0100081B0100081B01000810
:100060001B0100081B0100081B0100081B01000800
:100070001B0100081B0100081B0100081B010008F0
:100080001B0100081B0100081B0100081B010008E0
:100090001B0100081B0100081B01000803020008E7
:1000A0001B0100081B0100081B0100081B010008C0
:1000B0001B0100081B0100081B0100081B010008B0
:1000C0001B0100081B0100081B0100081B010008A0
:1000D0001B0100081B0100081B0100081B01000890
:1000E000FB0100081B0100081B010008DFF80CD011
:1000F00000F040F80048004779130008E815002098
:100100000648804706480047FEE7FEE7FEE7FEE7B1
:10011000FEE7FEE7FEE7FEE7FEE7FEE797110008D1
:10012000ED000008D2B201E000F8012B491EFBD21D
:1001300070470022F6E710B513460A4604461946F2
:10014000FFF7F0FF204610BD30B50B4601460020FA
:100150002022012409E021FA02F59D4205D303FA89
:1001600002F5491B04FA02F52844151EA2F101020A
:10017000F1DC30BD064C074D06E0E06840F00103BD
:1001800094E8070098471034AC42F6D3FFF7B2FF6B
:10019000541600087416000870B58D1810F8014B3D
:1001A00014F0030201D110F8012B231106D110F82D
:1001B000013B03E010F8016B01F8016B521EF9D10D
:1001C000ABB110F8012B04F00C048A1A0C2C03D0EC
:1001D000A2EB84129B1C08E010F8014BA2EB042256
:1001E000F8E712F8014B01F8014B5B1EF9D5A94263
:1001F000D4D3002070BDFEE770474FF4804000F07C
:1002000035B84FF4007000F031B8704770B504464F
:1002100000F02EF90546601C02D004480078044422
:1002200000F026F9401BA042FAD370BD740D0020E7
:1002300000220D49B0F5804F08D0B0F5007F11D1F4
:10024000087837280AD2401D087008E04878172837
:1002500002D2401C487002E04A7000E00A70282078
:10026000FFF7D4BF70470000700D0020044910B59F
:100270000A68024202D00860FFF7DAFF10BD0000F2
:10028000140401402DE9F84FDFF8B891002409F17A
:10029000040A0AF1040B23460F270BF1040EC9E0F0
:1002A0000125A5402A40AA427DD1674ED1F804C05D
:1002B000ACEB0608B44532D014DCBCF1030F3AD0E5
:1002C00009DCBCF1000F2AD0BCF1010F1CD0BCF13D
:1002D000020F31D11DE0BCF1110F17D0BCF1120F8C
:1002E0002AD119E0B8F5881F19D006DCB8F5803F8F
:1002F00015D0B8F5801F1FD111E0B8F5001F0ED042
:10030000B8F5041F18D10AE0CB6815E0CB681B1DB7
:1003100012E0CB6808330FE0CB680C330CE08B683D
:100320002BB1012B4FF0080303D0456104E00423F7
:1003300002E0056100E00023FF2A01D8064601E043
:1003400000F104064FEA840501D9A5F12005D6F88D
:10035000008007FA05FC28EA0C0803FA05F548EACC
:100360000508C6F800804D68ED0062D5374DAE69CE
:1003700046F00106AE61AD6924F0030605F0010503
:100380000095334D06EB050CDCF80850A607360F38
:1003900007FA06F825EA0805DFF8B880404503D1DA
:1003A0004FF0000817E044E0DFF8AC80404502D190
:1003B0004FF001080FE0DFF8A480404502D14FF074
:1003C000020808E0DFF89880404502D14FF00308AA
:1003D00001E04FF0040808FA06F848EA0508CCF8EE
:1003E00008804D68D9F80060ED034D4601D51643ED
:1003F00000E096432E604D68DAF80060AD03554684
:1004000001D5164300E096432E604D68DBF800608E
:10041000ED025D4601D5164300E096432E604D681F
:10042000DEF80060AD02754601D5164300E0964344
:100430002E60641C0D682A46E5407FF431AFBDE8AC
:10044000F88F00000004014000001110001002406D
:100450000000014000080140000C01400010014074
:10046000001401400AB1016170470904FBE7000074
:100470000148806870470000740D002070B50400CA
:1004800025D094F83D00002520B984F83C50204642
:1004900000F050F9242084F83D002068016821F024
:1004A000010101602068016841F400410160206899
:1004B000016821F40041016000F098FA4D4A61683A
:1004C000914201D84C4900E04C49884201D20120B8
:1004D00070BD4B492368B0FBF1F15E6826F03F0622
:1004E0000E435E606368934206D94FF49673594396
:1004F0004FF47A73B1FBF3F12368491C1E6A26F0AE
:100500003F06314319626168914210D84900401E8C
:10051000B0FBF1F2521CC2F30B02042A01D20420F8
:1005200022E0B0FBF1F0401CC0F30B001CE0A2681D
:10053000F2B301EBC10303EB0116431EB3FBF6F369
:100540005B1C43F480431B0549D092B301EBC1020D
:1005500002EB0111401EB0FBF1F0401CC0F30B0098
:1005600040F4804040F400402168CA694CF6FF73B3
:100570009A431043C861D4E9071001432068026818
:1005800022F0C00211430160D4E903010143206855
:10059000826848F2FF339A4311438160D4E9050130
:1005A00008432168CA6822F0FF021043C86001E0D6
:1005B0000EE016E02068016841F001010160256449
:1005C000202084F83D00256384F83E50002070BD53
:1005D00001EB4106431EB3FBF6F35B1CB3E70120BE
:1005E000C2E701EB4101401EB0FBF1F0401CC0F33B
:1005F0000B00B7E7A086010080841E0000093D00C3
:1006000040420F002DE9FF4F83B09A46DDE9119774
:1006100093460446DDF84080FFF72AFF054694F82C
:100620003D0020287FD11923012240492046009512
:1006300000F058FC002876D194F83C00012872D0D4
:10064000012084F83C0020680168C90703D10168D3
:1006500041F0010101602068016821F4006101603E
:10066000212084F83D00402084F83E0000262664C6
:10067000C4F82480A4F82A90608D20852C48E0627C
:10068000CDE9007553465A462046049900F0B0FB68
:1006900070B930E02A463946204600F0A2FC58B135
:1006A000206C042804D12068016841F400710160C5
:1006B000012007B0BDE8F08F606A2168007808610A
:1006C000606A401C6062218D491E89B22185628D5D
:1006D000521E628522685369DB435B070BD469B104
:1006E00000781061606A401C6062208D401E208589
:1006F000608D401E6085208D0028CBD12A4639466A
:10070000204600F0C9FB0028CAD154F83D0B01680F
:1007100041F400710160202004F81E09E677667735
:100720000020C6E7FFE70220C3E700000200100038
:100730000000FFFF10B586B00021009101910291E9
:10074000039100680F4988421AD10F4CA06940F00C
:100750000800A061A069694600F008000490C0206C
:10076000009012200190032003900848FFF78AFDB3
:10077000E06940F40010E061E06900F400100490CA
:1007800006B010BD0054004000100240000C0140B3
:10079000024881680278114481607047740D00201E
:1007A000074810B5016841F010010160032000F016
:1007B00075F8002000F006F800F024F8002010BDC5
:1007C0000020024070B50D4D04464FF47A71287830
:1007D000B1FBF0F00A490968B1FBF0F000F0DCFA77
:1007E00048B9102C07D200222146501E00F036F8DE
:1007F00000206C6070BD012070BD0000740D0020F1
:10080000800D00200C4808B5816941F0010181612B
:10081000816901F001010091C16941F08051C1611C
:10082000C06900F0805000900448416821F0E06108
:1008300041F00071416008BD00100240000001401D
:10084000002809DB00F01F020121914040098000CF
:1008500000F1E020C0F8001170470000F0B40E4B2A
:100860001B680C46C3F30223C3F10705042D00D90E
:100870000425191D072901D2002300E0DB1E0126F3
:1008800006FA05F1491E214099409E40761E164009
:100890003143F0BC00F096BC0CED00E0064900F0DE
:1008A000070208684FF6FF03184040EA0220034A97
:1008B00010430860704700000CED00E00000FA05EE
:1008C0002DE9F0470F46050061D0434E306800F037
:1008D0000700B84209D2306820F007003843306082
:1008E000306800F00700B84251D128683B4C8107BE
:1008F00012D5400703D5606840F4E0606060287856
:10090000000703D5606840F4605060606068A968C3
:1009100020F0F000084360602878C00728D068689D
:10092000012810D02168022810D0890700292EDA6A
:10093000616821F0030101436160FFF799FD804682
:1009400041F288390DE021688903EFE78901EDE77D
:10095000FFF78EFDA0EB0801494502D90320BDE851
:10096000F0876068696800F00C00B0EB810FEFD190
:10097000306800F00700B8420BD9306820F007005B
:1009800038433060306800F00700B84201D00120E1
:10099000E5E72878400705D56068E96820F4E0605D
:1009A000084360602878000706D56068296920F44C
:1009B000605040EAC100606000F028F86168084AB1
:1009C000C1F30311515CC84006490860064800683D
:1009D000FFF7F8FE0020C2E70020024000100240AE
:1009E0003C160008800D0020780D002004480549C1
:1009F00000684968044AC1F30221515CC84070474D
:100A0000800D0020001002404C16000812A185B095
:100A10000FC98DE80F0014A0144A006804905168B3
:100A2000134801F00C03042B10D0082B0ED1C1F396
:100A30008343C9031DF803000AD5516804AAC1F312
:100A40004041515C0A4A5043B0FBF1F005B0704799
:100A500008494843FAE700000203040506070809AD
:100A60000A0B0C0D0E0F10100102000000100240C6
:100A700000127A0000093D002DE9F84F040070D003
:100A80002078C04DC00749D06868C0F381000128B4
:100A900007D06868C0F38100022809D16868C003E4
:100AA00006D52868800339D560680028E7D035E08E
:100AB0006068B0F5803F0BD010B1B0F5A02F11D019
:100AC000286820F480302860286820F4802002E024
:100AD000286840F480302860606890B1FFF7C8FC57
:100AE00006460AE0286840F480202860F0E700BF4E
:100AF000FFF7BEFC801B642873D828688003F7D5F5
:100B00000CE0FFF7B5FC064605E000BFFFF7B0FCC0
:100B1000801B6428F0D828688003F7D420789A4E88
:100B200080074FF001094FF0000839D5686810F0D0
:100B30000C0F07D06868C0F38100022809D16868EB
:100B4000C00306D42868800714D52069012808D17D
:100B500010E02069B0B1C6F80090FFF789FC0746A5
:100B600005E00AE1FFF784FCC01B0228C4D828680E
:100B70008007F7D52868616920F0F80040EAC100D5
:100B800028600DE0C6F80080FFF772FC074604E01D
:100B9000FFF76EFCC01B022823D828688007F7D413
:100BA000207800072CD57948A169D9B1C0F8009008
:100BB000FFF75EFC074604E0FFF75AFCC01B022863
:100BC0000FD8686A8007F7D571484FF4FA5100686A
:100BD000B0FBF1F0009000BF0098411E0091FAD2E6
:100BE0000EE080E0C0F80080FFF742FC074604E01A
:100BF000FFF73EFCC01B022875D8686A8007F7D44F
:100C00002078400760D5E8690027C00008D4E8696B
:100C100040F08050E861E869012700F080500090C2
:100C20005C480168C90513D40168834641F48071AA
:100C30000160FFF71DFC824606E000BFFFF718FCCD
:100C4000A0EB0A0064284ED8DBF80000C005F5D5FB
:100C5000E06801280AD008B1052813D0286A20F0DE
:100C600001002862286A20F0040002E0286A40F0AF
:100C700001002862E06841F2883B98B1FFF7F8FB79
:100C800082460BE0286A40F004002862EEE700BFCD
:100C9000FFF7EEFBA0EB0A0159455AD8286A8007F6
:100CA000F6D50CE0FFF7E4FB824605E0FFF7E0FB3A
:100CB000A0EB0A0159454CD8286A8007F6D41FB129
:100CC000E86920F08050E861E06988B36968C1F3A1
:100CD0008101022944D00228C6F8608004D0FFF7C1
:100CE000C7FB044638E034E0FFF7C2FB074604E0E8
:100CF000FFF7BEFBC01B02282BD828688001F7D461
:100D0000206AB0F5803F05D16868A16820F4003002
:100D100008436860D4E908010843696821F4741144
:100D200008436860C6F86090FFF7A2FB044606E03F
:100D300025E000BFFFF79CFB001B022809D82868AC
:100D40008001F7D51BE000BFFFF792FB001B0228D4
:100D500002D90320BDE8F88F28688001F4D40EE0A2
:100D60000128F7D06868226A00F48031914204D1EA
:100D7000616A00F47010884201D00120EAE7002087
:100D8000E8E70000001002400000424280044242B6
:100D9000800D00200070004010B5401EB0F1807F33
:100DA00001D3012010BD4FF0E02460610F216017D6
:100DB00000F008FA0020A06107202061002010BD8B
:100DC000FEE701684A69D24352050FD46FF480628E
:100DD0004A61002140F8301F20224273817302696A
:100DE00042F0040202610173012070470020704745
:100DF0002DE9F843044600680D46DDE908970168CF
:100E00009846164641F4807101604B4600224FF02F
:100E100001112046009700F065F848B1206800688D
:100E2000C00502D54FF4007020640320BDE8F883AC
:100E3000216805F0FE0008613B464A4615492046F8
:100E400000F084F888B920684169806900903A46CA
:100E50004946204600F0C5F848B1206C042804D16A
:100E60002068016841F4007101600120DEE7F5B2FD
:100E7000B8F1010F09D02168300A08613A464946A5
:100E8000204600F0AEF80028E7D120680561002078
:100E9000CCE700000200010070B516460D4604467E
:100EA0000DE02046FFF78DFF08B1012070BD681CE2
:100EB00005D0FFF7DDFA801BA84207D835B12068BE
:100EC0004069C0434007ECD4002070BD002044F8C6
:100ED000300F20216173A073216941F0200121614D
:100EE0002073E2E72DE9F0471E4690460D46044682
:100EF000C1F30747DDF8209008E0701C06D0FFF72B
:100F0000B7FAA0EB0900B0420FD876B12068012FE4
:100F100018D0806925EA00000004000C14D00021DC
:100F20004145EAD00020BDE8F087002044F8300FAA
:100F300020216173A073216941F020012161207398
:100F40000120F0E74069E5E70121E9E72DE9F047F5
:100F50009A4691460E46044600254FF02008C1F3FC
:100F6000074725E020684069C043400514D4206845
:100F7000016841F40071016021686FF4806048618C
:100F8000256384F83D8084F83E50206C40F00400D6
:100F9000206484F83C501FE0B9F1FF3F08D0FFF710
:100FA00067FAA0EB0A0149450CD8B9F1000F09D046
:100FB0002068012F13D0806926EA00000004000C8D
:100FC0000BD0CFE744F8305F84F80D80A57320691B
:100FD00040F02000206125730120BDE8F0874069C2
:100FE000EAE770B516460D4604460DE02046FFF7C9
:100FF000E8FE08B1012070BD681C05D0FFF738FA83
:10100000801BA84207D835B120684069C04300065C
:10101000ECD4002070BD002044F8300F2021617313
:10102000A073216941F0200121612073E2E70000F3
:1010300070B586B000242D48009401940294039466
:10104000816941F010018161816901F01001049111
:10105000816941F020018161816901F020010491E1
:10106000816941F004018161816901F00401049109
:10107000816941F00801816180691D4E00F008001E
:101080004FF400550490002229463046FFF7EAF954
:1010900001200095CDE90104022003906946304605
:1010A000FFF7F0F86800134D6946CDE9000502949A
:1010B0003046FFF7E7F87015CDE900056946029460
:1010C0000D48FFF7DFF8002203211720FFF7C6FBCA
:1010D0001720FFF7B5FB002203212820FFF7BEFBF6
:1010E0002820FFF7ADFB06B070BD000000100240E5
:1010F0000010014000001110000C01400D4810B517
:101100000B4901600C49416000214FF4804281602D
:10111000C0E9031241618161C1610162FFF7AEF96B
:10112000002803D0BDE81040FFF76FB810BD0000E5
:101130000054004090110020A0860100FEE7704797
:1011400070477047FFF724BB30B58FB02821684641
:10115000FEF7EFFF14210AA8FEF7EBFF01210804B8
:10116000CDE900100024029402250491CDE9075036
:101170004FF4E01009906846FFF77EFC0F20CDE9A0
:101180000A056802CDE90C4002210AA80E94FFF777
:1011900097FB0FB030BD7047FEE700000FB4084B5F
:1011A00010B504A902AA039800F02CF8044602A97D
:1011B000002000F0D1F8204610BC5DF814FB0000C0
:1011C000591300080907090E002804DB00F1E0208C
:1011D00080F80014704700F00F0000F1E02080F864
:1011E000141D704702E008C8121F08C1002AFAD176
:1011F00070477047002001E001C1121F002AFBD197
:10120000704700002DE9FF4F89B09B46044600253A
:1012100006E025280BD05A460B999047641C6D1C9C
:1012200020780028F5D10DB02846BDE8F08F0027C2
:10123000B8460122474900E0074314F8013F203B2C
:1012400002FA03F00842F7D120782E2819D114F8B9
:10125000010F47F004072A280ED06FF02F022078E4
:10126000A0F1300109290CD808EB880102EB4101FB
:1012700000EB0108641CF2E70A98641C50F8048B28
:101280000A9020780028CED0642808D0692806D09B
:1012900075281ED05A460B9990476D1C58E00A9944
:1012A0004FF00A0901C90A91002802DA40422D21B3
:1012B00002E0390504D52B218DF82010012103E02F
:1012C000F90704D02021F7E78A4608AE0DE0002197
:1012D000FAE70A994FF00A0901C90A91F7E7494666
:1012E000FEF732FF303106F8011D0028F7D1ADEBD3
:1012F000060000F12009780701D44FF00108C84525
:1013000002DDA8EB090000E000208046002706E08F
:1013100008A85A46C05D0B9990476D1C7F1C574525
:10132000F6DB04E030205A460B9990476D1CB8F16B
:101330000001A8F10108F5DC05E016F8010B5A469A
:101340000B9990476D1CB9F10001A9F10109F4DC7A
:10135000641C65E7092801000A68531C0B601070C3
:10136000704710B504468D2000F02EF92046BDE8E8
:10137000104000F029B90000FFF712FAFFF7E4FE71
:10138000FFF756FEFFF7BAFE00F07CF800F06CF8AD
:101390000B4C0C4D0CA1237862780D48FFF7FEFE34
:1013A0000A21052000F09EF8D5E90001084A00F066
:1013B0002BF900F09DF80120FEF728FFEAE7000076
:1013C000700D0020680D00202564203A202564005F
:1013D00084110020022210B502EB001040EA4110F7
:1013E000C4B2DA2000F0F0F82046BDE8104000F06A
:1013F000EBB810B50446812000F0E6F82046BDE8C1
:10140000104000F0E1B810B540EA0110C4B2D52098
:1014100000F0DAF82046BDE8104000F0D5B810B56D
:101420000446D32000F0D0F82046BDE8104000F07C
:10143000CBB810B50446A82000F0C6F82046BDE899
:10144000104000F0C1B80000CA0810B500EBC2128D
:10145000044801F007040121835CA1408B438354BD
:1014600010BD0000840D00200020054902464FF405
:1014700080630A54401C9842FBDB00F039B800003E
:10148000840D002010B53F20FFF7D3FF0020FFF7A9
:10149000C6FF402000F098F8A12000F095F8C82081
:1014A00000F092F800210120FFF794FF7F20FFF762
:1014B000A0FFA42000F088F8A62000F085F80821FD
:1014C0000020FFF7A0FF1420FFF74BFFAF2000F034
:1014D0007BF8FFF7C9FF0021BDE81040084600F087
:1014E00001B80000014A10705170704700000020E0
:1014F00070B50B4D002400BF04F1B000C0B200F085
:1015000063F8002000F060F8102000F05DF805EBB3
:10151000C410802100F06AF8641C082CECDB70BD5C
:10152000840D0020CA0810B500EBC213044801F076
:1015300007040121C25CA1400A43C25410BD00004F
:10154000840D00202DE9F74FA2F1200A9346BAF14D
:101550005F0F0CD21B49C6B20A783244802A06D8E3
:1015600089464978C0F30727C819402802D90020C6
:10157000BDE8FE8F00251CE00AFB075101980024FE
:1015800030F8118012E000BF08FA04F0000499F866
:10159000011099F8000029442044C9B2C0B202D514
:1015A000FFF7C0FF01E0FFF74FFF641CA642EBDC32
:1015B0006D1CAF42E0DC99F800105846314489F8C0
:1015C0000010D5E70000002001B584B001214FF4E0
:1015D0007A7204A88DE807000B46002278210248A1
:1015E000FFF710F805B000BD901100200EB54FF4C4
:1015F0007A728DE807000123402278210148FFF725
:1016000001F80EBD9011002070B505460A48144639
:101610000E46C0E9015109E031462846FFF792FF26
:101620002178884201D0C8B270BD641C2278002A9B
:10163000F2D1D0B270BD0000000000200000000018
:101640000000000001020304060708090000000072
:10165000010203047416000800000020840D00003D
:1016600098010008401B0008840D00206408000059
:10167000F41100080230000102130C024118612429
:10168000721B02011747438019022009C07FC07FE7
:101690008019003308530033026125100C1E003FEF
:1016A000807580650074003C0C100607800580651D
:1016B00002100475003F0E1204022149A01C7000A4
:1016C000D840D8C0D880D900730006000C801BC059
:1016D00036C066C046C006800348515C0012111E29
:1016E000000CC03CC066806380618063C03E801C8B
:1016F000D80116B2100600000100036412067CA196
:10170000FE32041410040300012290062000100091
:1017100018166102413212181E362044322DC406BA
:1017200024336C00051EC0FFC0FF9EF5A4252002D7
:101730001108C7161E3C052AEC610C32030261D465
:101740006906321802B568155A2102126D02310A73
:1017500015D6923F74140406000E90B40436002689
:10176000204526A5F832733E457221687008300086
:1017700060807F807FC810061C003E006302120359
:101780005010060E0003800102F0046180736C218A
:101790006E10041E001672300436006642C16C12D0
:1017A0007F0232600218046E007F180112482190F7
:1017B00011D85124419AB36180D8215A31AE960391
:1017C0002006100820397A30046100210C452AE2F5
:1017D000616C620062200673803F801DD8C200D811
:1017E0000512A0011210011226F91C1F80002A0305
:1017F00014040E0038060C071438000E800380B065
:1018000003557CB584CD21031E408C031E1CA6030A
:1018100014040100079E127010A11E100C1F803FBF
:10182000C071C060C000C001701607B60D1038044A
:1018300025681C043180719E033A6F4010046F804C
:1018400067961632EA8DA80325D25D6004112C1626
:10185000312211341158110275D438047C007E1CD9
:101860002102227E0C39921663ECD27E6C5661FC0A
:10187000390215D4B631F8127C324663B275AC41E8
:1018800054B67C186142894CB9AC0116243102016E
:10189000139062807611E0996491883970A19865FF
:1018A000861A3F2A0D12A40521186D7C05F201024B
:1018B000EA61F433C060EC12660214046C007852E2
:1018C000210A3548956802146002A1FC15F410083D
:1018D00071C07BC07AC06A0244046EC064AAC5B0FD
:1018E00015F230047180790225F61E6DE405326729
:1018F0000215060D135C04858ECD5C043E7EC2038A
:101900009661EE051368D148116E115A03123F40DB
:1019100048414611FAF1FC1A0ED219801D98043E76
:10192000389C064603B0B544ADB8050D1032070526
:1019300010D485DED58C29E039EE7E315C072D0888
:10194000035E0E0407216C81011004CC804C021050
:10195000045E805202AA731C2404C0C080D62C04EA
:1019600033003B08071D86061C061E001F003B7047
:1019700003900461C0C0244DB4052D2C0702151E30
:10198000B42D74036DEC046D0606CDA005120F0294
:1019900002190C0221205E001E056D7A076D2C07CE
:1019A0004D6A068DAE06021906024DCE0641CC2EBA
:1019B000124008BD0C030D27D5083FE0FF3C033E55
:1019C00038BC070124331DD0042DA006428008FC3A
:1019D0000663807FC0381803AD2E0625D41E7F64B1
:1019E000060D1090073DEC065D8004BD84037D9ECE
:1019F00003A0041D803F482D16060112483D3806FD
:101A00003D9004BF8071CC033707C08E3D88040928
:101A1000158855DA01116A1D10072D3A05923ED836
:101A20001E6F0606DE718A038D74074D5C071E3E2D
:101A3000B6050D14E007011A221C04060046B60381
:101A4000823C6C5D86041E6CD4054E7686039D80B8
:101A500004011442CD4C086DA0071EDD4609A00408
:101A6000CEC0CC02FDE309011AD80D109C08FD344C
:101A70000551460512F6DDEE050515683102914A5D
:101A80001E67FE051E396204A102F19029882D7C93
:101A9000062D94031D2A08B27F904D82082D7406EE
:101AA00082180219B4FE0FE007CD800419D0EF8030
:101AB0003D2603DD84042D820405116821023300D4
:101AC0005502127702122202F16C6D8C0B3D8404D8
:101AD0003DB60301118E323126ADEE041A1C06927A
:101AE00070902D3C0C9D220A3D440C4D5E0C9C04D4
:101AF0000380072604213A321CAE59661E80B005C9
:101B00000D1B5804698E1E387A0C8DB6041E0EB853
:101B1000086DBA084D5607D0043C0038DC1E38EC7E
:101B200007EE47A9092F0B129D093DFC0B1D450C23
:101B30001E00250C59C200040024F400000000001F
:04000005080000ED02
:00000001FF
